{"contracts/NftMarketplace.sol":{"NftMarketplace":{"abi":[{"inputs":[],"name":"NftMarketplace__NotApprovedForMarketplace","type":"error"},{"inputs":[],"name":"NftMarketplace__PriceMustBeAboveZero","type":"error"},{"anonymous":false,"inputs":[{"indexed":true,"internalType":"address","name":"seller","type":"address"},{"indexed":true,"internalType":"address","name":"nftAddress","type":"address"},{"indexed":true,"internalType":"uint256","name":"tokenId","type":"uint256"},{"indexed":false,"internalType":"uint256","name":"price","type":"uint256"}],"name":"ItemListed","type":"event"},{"inputs":[{"internalType":"address","name":"nftAddress","type":"address"},{"internalType":"uint256","name":"tokenId","type":"uint256"},{"internalType":"uint256","name":"price","type":"uint256"}],"name":"listItem","outputs":[],"stateMutability":"nonpayable","type":"function"}],"devdoc":{"kind":"dev","methods":{},"version":1},"evm":{"bytecode":{"linkReferences":{},"object":"608060405234801561001057600080fd5b50610372806100206000396000f3fe608060405234801561001057600080fd5b506004361061002b5760003560e01c806389bfd38f14610030575b600080fd5b61004a6004803603810190610045919061027d565b61004c565b005b60008111610086576040517f096d7ecf00000000000000000000000000000000000000000000000000000000815260040160405180910390fd5b60008390503073ffffffffffffffffffffffffffffffffffffffff168173ffffffffffffffffffffffffffffffffffffffff1663081812fc856040518263ffffffff1660e01b81526004016100db91906102df565b60206040518083038186803b1580156100f357600080fd5b505afa158015610107573d6000803e3d6000fd5b505050506040513d601f19601f8201168201806040525081019061012b919061030f565b73ffffffffffffffffffffffffffffffffffffffff1614610178576040517f13e7d28d00000000000000000000000000000000000000000000000000000000815260040160405180910390fd5b828473ffffffffffffffffffffffffffffffffffffffff163373ffffffffffffffffffffffffffffffffffffffff167fd547e933094f12a9159076970143ebe73234e64480317844b0dcb36117116de4856040516101d691906102df565b60405180910390a450505050565b600080fd5b600073ffffffffffffffffffffffffffffffffffffffff82169050919050565b6000610214826101e9565b9050919050565b61022481610209565b811461022f57600080fd5b50565b6000813590506102418161021b565b92915050565b6000819050919050565b61025a81610247565b811461026557600080fd5b50565b60008135905061027781610251565b92915050565b600080600060608486031215610296576102956101e4565b5b60006102a486828701610232565b93505060206102b586828701610268565b92505060406102c686828701610268565b9150509250925092565b6102d981610247565b82525050565b60006020820190506102f460008301846102d0565b92915050565b6000815190506103098161021b565b92915050565b600060208284031215610325576103246101e4565b5b6000610333848285016102fa565b9150509291505056fea2646970667358221220cc972c0b08ab2b204e08785bad829f133f32b200ba4b3820913058762fa97d8664736f6c63430008080033","opcodes":"PUSH1 0x80 PUSH1 0x40 MSTORE CALLVALUE DUP1 ISZERO PUSH2 0x10 JUMPI PUSH1 0x0 DUP1 REVERT JUMPDEST POP PUSH2 0x372 DUP1 PUSH2 0x20 PUSH1 0x0 CODECOPY PUSH1 0x0 RETURN INVALID PUSH1 0x80 PUSH1 0x40 MSTORE CALLVALUE DUP1 ISZERO PUSH2 0x10 JUMPI PUSH1 0x0 DUP1 REVERT JUMPDEST POP PUSH1 0x4 CALLDATASIZE LT PUSH2 0x2B JUMPI PUSH1 0x0 CALLDATALOAD PUSH1 0xE0 SHR DUP1 PUSH4 0x89BFD38F EQ PUSH2 0x30 JUMPI JUMPDEST PUSH1 0x0 DUP1 REVERT JUMPDEST PUSH2 0x4A PUSH1 0x4 DUP1 CALLDATASIZE SUB DUP2 ADD SWAP1 PUSH2 0x45 SWAP2 SWAP1 PUSH2 0x27D JUMP JUMPDEST PUSH2 0x4C JUMP JUMPDEST STOP JUMPDEST PUSH1 0x0 DUP2 GT PUSH2 0x86 JUMPI PUSH1 0x40 MLOAD PUSH32 0x96D7ECF00000000000000000000000000000000000000000000000000000000 DUP2 MSTORE PUSH1 0x4 ADD PUSH1 0x40 MLOAD DUP1 SWAP2 SUB SWAP1 REVERT JUMPDEST PUSH1 0x0 DUP4 SWAP1 POP ADDRESS PUSH20 0xFFFFFFFFFFFFFFFFFFFFFFFFFFFFFFFFFFFFFFFF AND DUP2 PUSH20 0xFFFFFFFFFFFFFFFFFFFFFFFFFFFFFFFFFFFFFFFF AND PUSH4 0x81812FC DUP6 PUSH1 0x40 MLOAD DUP3 PUSH4 0xFFFFFFFF AND PUSH1 0xE0 SHL DUP2 MSTORE PUSH1 0x4 ADD PUSH2 0xDB SWAP2 SWAP1 PUSH2 0x2DF JUMP JUMPDEST PUSH1 0x20 PUSH1 0x40 MLOAD DUP1 DUP4 SUB DUP2 DUP7 DUP1 EXTCODESIZE ISZERO DUP1 ISZERO PUSH2 0xF3 JUMPI PUSH1 0x0 DUP1 REVERT JUMPDEST POP GAS STATICCALL ISZERO DUP1 ISZERO PUSH2 0x107 JUMPI RETURNDATASIZE PUSH1 0x0 DUP1 RETURNDATACOPY RETURNDATASIZE PUSH1 0x0 REVERT JUMPDEST POP POP POP POP PUSH1 0x40 MLOAD RETURNDATASIZE PUSH1 0x1F NOT PUSH1 0x1F DUP3 ADD AND DUP3 ADD DUP1 PUSH1 0x40 MSTORE POP DUP2 ADD SWAP1 PUSH2 0x12B SWAP2 SWAP1 PUSH2 0x30F JUMP JUMPDEST PUSH20 0xFFFFFFFFFFFFFFFFFFFFFFFFFFFFFFFFFFFFFFFF AND EQ PUSH2 0x178 JUMPI PUSH1 0x40 MLOAD PUSH32 0x13E7D28D00000000000000000000000000000000000000000000000000000000 DUP2 MSTORE PUSH1 0x4 ADD PUSH1 0x40 MLOAD DUP1 SWAP2 SUB SWAP1 REVERT JUMPDEST DUP3 DUP5 PUSH20 0xFFFFFFFFFFFFFFFFFFFFFFFFFFFFFFFFFFFFFFFF AND CALLER PUSH20 0xFFFFFFFFFFFFFFFFFFFFFFFFFFFFFFFFFFFFFFFF AND PUSH32 0xD547E933094F12A9159076970143EBE73234E64480317844B0DCB36117116DE4 DUP6 PUSH1 0x40 MLOAD PUSH2 0x1D6 SWAP2 SWAP1 PUSH2 0x2DF JUMP JUMPDEST PUSH1 0x40 MLOAD DUP1 SWAP2 SUB SWAP1 LOG4 POP POP POP POP JUMP JUMPDEST PUSH1 0x0 DUP1 REVERT JUMPDEST PUSH1 0x0 PUSH20 0xFFFFFFFFFFFFFFFFFFFFFFFFFFFFFFFFFFFFFFFF DUP3 AND SWAP1 POP SWAP2 SWAP1 POP JUMP JUMPDEST PUSH1 0x0 PUSH2 0x214 DUP3 PUSH2 0x1E9 JUMP JUMPDEST SWAP1 POP SWAP2 SWAP1 POP JUMP JUMPDEST PUSH2 0x224 DUP2 PUSH2 0x209 JUMP JUMPDEST DUP2 EQ PUSH2 0x22F JUMPI PUSH1 0x0 DUP1 REVERT JUMPDEST POP JUMP JUMPDEST PUSH1 0x0 DUP2 CALLDATALOAD SWAP1 POP PUSH2 0x241 DUP2 PUSH2 0x21B JUMP JUMPDEST SWAP3 SWAP2 POP POP JUMP JUMPDEST PUSH1 0x0 DUP2 SWAP1 POP SWAP2 SWAP1 POP JUMP JUMPDEST PUSH2 0x25A DUP2 PUSH2 0x247 JUMP JUMPDEST DUP2 EQ PUSH2 0x265 JUMPI PUSH1 0x0 DUP1 REVERT JUMPDEST POP JUMP JUMPDEST PUSH1 0x0 DUP2 CALLDATALOAD SWAP1 POP PUSH2 0x277 DUP2 PUSH2 0x251 JUMP JUMPDEST SWAP3 SWAP2 POP POP JUMP JUMPDEST PUSH1 0x0 DUP1 PUSH1 0x0 PUSH1 0x60 DUP5 DUP7 SUB SLT ISZERO PUSH2 0x296 JUMPI PUSH2 0x295 PUSH2 0x1E4 JUMP JUMPDEST JUMPDEST PUSH1 0x0 PUSH2 0x2A4 DUP7 DUP3 DUP8 ADD PUSH2 0x232 JUMP JUMPDEST SWAP4 POP POP PUSH1 0x20 PUSH2 0x2B5 DUP7 DUP3 DUP8 ADD PUSH2 0x268 JUMP JUMPDEST SWAP3 POP POP PUSH1 0x40 PUSH2 0x2C6 DUP7 DUP3 DUP8 ADD PUSH2 0x268 JUMP JUMPDEST SWAP2 POP POP SWAP3 POP SWAP3 POP SWAP3 JUMP JUMPDEST PUSH2 0x2D9 DUP2 PUSH2 0x247 JUMP JUMPDEST DUP3 MSTORE POP POP JUMP JUMPDEST PUSH1 0x0 PUSH1 0x20 DUP3 ADD SWAP1 POP PUSH2 0x2F4 PUSH1 0x0 DUP4 ADD DUP5 PUSH2 0x2D0 JUMP JUMPDEST SWAP3 SWAP2 POP POP JUMP JUMPDEST PUSH1 0x0 DUP2 MLOAD SWAP1 POP PUSH2 0x309 DUP2 PUSH2 0x21B JUMP JUMPDEST SWAP3 SWAP2 POP POP JUMP JUMPDEST PUSH1 0x0 PUSH1 0x20 DUP3 DUP5 SUB SLT ISZERO PUSH2 0x325 JUMPI PUSH2 0x324 PUSH2 0x1E4 JUMP JUMPDEST JUMPDEST PUSH1 0x0 PUSH2 0x333 DUP5 DUP3 DUP6 ADD PUSH2 0x2FA JUMP JUMPDEST SWAP2 POP POP SWAP3 SWAP2 POP POP JUMP INVALID LOG2 PUSH5 0x6970667358 0x22 SLT KECCAK256 0xCC SWAP8 0x2C SIGNEXTEND ADDMOD 0xAB 0x2B KECCAK256 0x4E ADDMOD PUSH25 0x5BAD829F133F32B200BA4B3820913058762FA97D8664736F6C PUSH4 0x43000808 STOP CALLER "},"gasEstimates":{"creation":{"codeDepositCost":"176400","executionCost":"220","totalCost":"176620"},"external":{"listItem(address,uint256,uint256)":"infinite"}},"methodIdentifiers":{"listItem(address,uint256,uint256)":"89bfd38f"}},"storageLayout":{"storage":[{"astId":192,"contract":"contracts/NftMarketplace.sol:NftMarketplace","label":"s_listings","offset":0,"slot":"0","type":"t_mapping(t_address,t_mapping(t_uint256,t_struct(Listing)145_storage))"}],"types":{"t_address":{"encoding":"inplace","label":"address","numberOfBytes":"20"},"t_mapping(t_address,t_mapping(t_uint256,t_struct(Listing)145_storage))":{"encoding":"mapping","key":"t_address","label":"mapping(address => mapping(uint256 => struct NftMarketplace.Listing))","numberOfBytes":"32","value":"t_mapping(t_uint256,t_struct(Listing)145_storage)"},"t_mapping(t_uint256,t_struct(Listing)145_storage)":{"encoding":"mapping","key":"t_uint256","label":"mapping(uint256 => struct NftMarketplace.Listing)","numberOfBytes":"32","value":"t_struct(Listing)145_storage"},"t_struct(Listing)145_storage":{"encoding":"inplace","label":"struct NftMarketplace.Listing","members":[{"astId":142,"contract":"contracts/NftMarketplace.sol:NftMarketplace","label":"price","offset":0,"slot":"0","type":"t_uint256"},{"astId":144,"contract":"contracts/NftMarketplace.sol:NftMarketplace","label":"seller","offset":0,"slot":"1","type":"t_address"}],"numberOfBytes":"64"},"t_uint256":{"encoding":"inplace","label":"uint256","numberOfBytes":"32"}}},"userdoc":{"kind":"user","methods":{},"version":1}}}}