{"contracts/NftMarketplace.sol":{"NftMarketplace":{"abi":[{"inputs":[{"internalType":"address","name":"nftAddress","type":"address"},{"internalType":"uint256","name":"tokenId","type":"uint256"}],"name":"NftMarketplace__AlreadyListed","type":"error"},{"inputs":[],"name":"NftMarketplace__NoProceeds","type":"error"},{"inputs":[],"name":"NftMarketplace__NotApprovedForMarketplace","type":"error"},{"inputs":[{"internalType":"address","name":"nftAddress","type":"address"},{"internalType":"uint256","name":"tokenId","type":"uint256"}],"name":"NftMarketplace__NotListed","type":"error"},{"inputs":[],"name":"NftMarketplace__NotOwner","type":"error"},{"inputs":[],"name":"NftMarketplace__PriceMustBeAboveZero","type":"error"},{"inputs":[{"internalType":"address","name":"nftAddress","type":"address"},{"internalType":"uint256","name":"tokenId","type":"uint256"},{"internalType":"uint256","name":"price","type":"uint256"}],"name":"NftMarketplace__PriceNotMet","type":"error"},{"inputs":[],"name":"NftMarketplace__TransferedFailed","type":"error"},{"anonymous":false,"inputs":[{"indexed":true,"internalType":"address","name":"buyer","type":"address"},{"indexed":true,"internalType":"address","name":"nftAddress","type":"address"},{"indexed":true,"internalType":"uint256","name":"tokenId","type":"uint256"},{"indexed":false,"internalType":"uint256","name":"price","type":"uint256"}],"name":"ItemBought","type":"event"},{"anonymous":false,"inputs":[{"indexed":true,"internalType":"address","name":"seller","type":"address"},{"indexed":true,"internalType":"address","name":"nftAddress","type":"address"},{"indexed":false,"internalType":"uint256","name":"tokenId","type":"uint256"}],"name":"NftMarketplace__ItemCancelled","type":"event"},{"anonymous":false,"inputs":[{"indexed":true,"internalType":"address","name":"seller","type":"address"},{"indexed":true,"internalType":"address","name":"nftAddress","type":"address"},{"indexed":true,"internalType":"uint256","name":"tokenId","type":"uint256"},{"indexed":false,"internalType":"uint256","name":"price","type":"uint256"}],"name":"NftMarketplace__ItemListed","type":"event"},{"inputs":[{"internalType":"address","name":"nftAddress","type":"address"},{"internalType":"uint256","name":"tokenId","type":"uint256"}],"name":"buyItem","outputs":[],"stateMutability":"payable","type":"function"},{"inputs":[{"internalType":"address","name":"nftAddress","type":"address"},{"internalType":"uint256","name":"tokenId","type":"uint256"}],"name":"cancelListing","outputs":[],"stateMutability":"nonpayable","type":"function"},{"inputs":[{"internalType":"address","name":"nftAddress","type":"address"},{"internalType":"uint256","name":"tokenId","type":"uint256"}],"name":"getListing","outputs":[{"components":[{"internalType":"uint256","name":"price","type":"uint256"},{"internalType":"address","name":"seller","type":"address"}],"internalType":"struct NftMarketplace.Listing","name":"","type":"tuple"}],"stateMutability":"view","type":"function"},{"inputs":[{"internalType":"address","name":"seller","type":"address"}],"name":"getProceeds","outputs":[{"internalType":"uint256","name":"","type":"uint256"}],"stateMutability":"view","type":"function"},{"inputs":[{"internalType":"address","name":"nftAddress","type":"address"},{"internalType":"uint256","name":"tokenId","type":"uint256"},{"internalType":"uint256","name":"price","type":"uint256"}],"name":"listItem","outputs":[],"stateMutability":"nonpayable","type":"function"},{"inputs":[{"internalType":"address","name":"nftAddress","type":"address"},{"internalType":"uint256","name":"tokenId","type":"uint256"},{"internalType":"uint256","name":"newPrice","type":"uint256"}],"name":"updateListing","outputs":[],"stateMutability":"nonpayable","type":"function"},{"inputs":[],"name":"withdrawProceeds","outputs":[],"stateMutability":"nonpayable","type":"function"}],"devdoc":{"kind":"dev","methods":{},"version":1},"evm":{"bytecode":{"linkReferences":{},"object":"608060405234801561001057600080fd5b506001600081905550612370806100286000396000f3fe6080604052600436106100705760003560e01c80639038e6931161004e5780639038e693146101185780639f37092a1461012f578063b2ddee061461014b578063f772adf11461017457610070565b806330cfeda91461007557806388700d1c146100b257806389bfd38f146100ef575b600080fd5b34801561008157600080fd5b5061009c60048036038101906100979190611f82565b61019d565b6040516100a99190611fc8565b60405180910390f35b3480156100be57600080fd5b506100d960048036038101906100d4919061200f565b610222565b6040516100e6919061209c565b60405180910390f35b3480156100fb57600080fd5b50610116600480360381019061011191906120b7565b610329565b005b34801561012457600080fd5b5061012d610ac1565b005b6101496004803603810190610144919061200f565b610de9565b005b34801561015757600080fd5b50610172600480360381019061016d919061200f565b6114c2565b005b34801561018057600080fd5b5061019b600480360381019061019691906120b7565b6119eb565b005b60006101b367a505e81f4712666c60c01b611eec565b6101c767534457d52d3bb97d60c01b611eec565b6101db67c6d23e6d7bb7e84760c01b611eec565b600260008373ffffffffffffffffffffffffffffffffffffffff1673ffffffffffffffffffffffffffffffffffffffff168152602001908152602001600020549050919050565b61022a611eef565b61023e67ec79837d7121768160c01b611eec565b61025267397a68dfeb46b8ca60c01b611eec565b61026667a23f7c4d53ecf4c160c01b611eec565b600160008473ffffffffffffffffffffffffffffffffffffffff1673ffffffffffffffffffffffffffffffffffffffff1681526020019081526020016000206000838152602001908152602001600020604051806040016040529081600082015481526020016001820160009054906101000a900473ffffffffffffffffffffffffffffffffffffffff1673ffffffffffffffffffffffffffffffffffffffff1673ffffffffffffffffffffffffffffffffffffffff1681525050905092915050565b61033d67225c650c5e54c6aa60c01b611eec565b828233610354676bb804301ae3060f60c01b611eec565b610368676cebbf3452d01bcd60c01b611eec565b61037c67be41da4fc024ba1660c01b611eec565b6000600160008573ffffffffffffffffffffffffffffffffffffffff1673ffffffffffffffffffffffffffffffffffffffff1681526020019081526020016000206000848152602001908152602001600020604051806040016040529081600082015481526020016001820160009054906101000a900473ffffffffffffffffffffffffffffffffffffffff1673ffffffffffffffffffffffffffffffffffffffff1673ffffffffffffffffffffffffffffffffffffffff1681525050905061044f67d21e255bed93f42f60c01b611eec565b610463670982baf3ee7ed42660c01b611eec565b6000816000015111156104d7576104846779c37e209e8be5d260c01b611eec565b61049867ba617e9bf13b968160c01b611eec565b83836040517fc2f0d7090000000000000000000000000000000000000000000000000000000081526004016104ce929190612119565b60405180910390fd5b6104eb679678058ce4d34bc360c01b611eec565b6104ff67c9c1e740cb55485960c01b611eec565b61051367c36ad235203e7e9560c01b611eec565b6105276751a958766ef5034c60c01b611eec565b86863361053e67657f0923b55e375b60c01b611eec565b61055267b0fb65a35c0261f260c01b611eec565b610566670526d59af46322cb60c01b611eec565b600083905061057f67610dfc9eb53a6bc360c01b611eec565b610593673cb83bbfcecfba6660c01b611eec565b60008173ffffffffffffffffffffffffffffffffffffffff16636352211e856040518263ffffffff1660e01b81526004016105ce9190611fc8565b60206040518083038186803b1580156105e657600080fd5b505afa1580156105fa573d6000803e3d6000fd5b505050506040513d601f19601f8201168201806040525081019061061e9190612157565b905061063467842336c7815a03cd60c01b611eec565b6106486781332978e77d2cbb60c01b611eec565b8073ffffffffffffffffffffffffffffffffffffffff168373ffffffffffffffffffffffffffffffffffffffff16146106d55761068f67ecb87ad81da6e39160c01b611eec565b6106a367cfc8659c1c70936260c01b611eec565b6040517f94953b6000000000000000000000000000000000000000000000000000000000815260040160405180910390fd5b6106e967e2b1c8cb1ce72f7060c01b611eec565b6106fd67772db97c9720409660c01b611eec565b61071167c398aeaaa73e133860c01b611eec565b610725676b9e44bcdbc7f4fd60c01b611eec565b61073967d3dac03ea2dc877860c01b611eec565b61074d6703fd342f0a14140660c01b611eec565b60008a116107af576107696770dc5f6a63ce7dca60c01b611eec565b61077d67d33a7c5d85d0ab3260c01b611eec565b6040517f096d7ecf00000000000000000000000000000000000000000000000000000000815260040160405180910390fd5b6107c367be6fa8b23fe87e1160c01b611eec565b6107d767a916d06dadbaf89760c01b611eec565b6107eb67bf3daee83b88c14a60c01b611eec565b60008c9050610804676b2af06b484579d760c01b611eec565b61081867b830d3647c7f8de860c01b611eec565b3073ffffffffffffffffffffffffffffffffffffffff168173ffffffffffffffffffffffffffffffffffffffff1663081812fc8e6040518263ffffffff1660e01b81526004016108689190611fc8565b60206040518083038186803b15801561088057600080fd5b505afa158015610894573d6000803e3d6000fd5b505050506040513d601f19601f820116820180604052508101906108b89190612157565b73ffffffffffffffffffffffffffffffffffffffff161461092d576108e767ba60b7d33ea813e560c01b611eec565b6108fb673d6824bcba6aa92160c01b611eec565b6040517f13e7d28d00000000000000000000000000000000000000000000000000000000815260040160405180910390fd5b610941675e14f8465cc7d3da60c01b611eec565b61095567f64b074a286b671660c01b611eec565b60405180604001604052808c81526020013373ffffffffffffffffffffffffffffffffffffffff16815250600160008f73ffffffffffffffffffffffffffffffffffffffff1673ffffffffffffffffffffffffffffffffffffffff16815260200190815260200160002060008e81526020019081526020016000206000820151816000015560208201518160010160006101000a81548173ffffffffffffffffffffffffffffffffffffffff021916908373ffffffffffffffffffffffffffffffffffffffff160217905550905050610a38676bfd23c5c2f6471e60c01b611eec565b610a4c678dcb365a350da2b660c01b611eec565b8b8d73ffffffffffffffffffffffffffffffffffffffff163373ffffffffffffffffffffffffffffffffffffffff167fd8c9d4c3e24291376076c3d2c9f426d5cfac54e1e229830c764f941426c070fa8e604051610aaa9190611fc8565b60405180910390a450505050505050505050505050565b610ad567a9c1c52e0c75898060c01b611eec565b60026000541415610b1b576040517f08c379a0000000000000000000000000000000000000000000000000000000008152600401610b12906121e1565b60405180910390fd5b6002600081905550610b376728a107e2fce4a90060c01b611eec565b610b4b6768b96bfc58aac37160c01b611eec565b610b5f67252555ad712a3ab160c01b611eec565b610b7367c62ad55f8d23262960c01b611eec565b6000600260003373ffffffffffffffffffffffffffffffffffffffff1673ffffffffffffffffffffffffffffffffffffffff168152602001908152602001600020549050610bcb6794e33cefd0d389cd60c01b611eec565b610bdf671eac0edeb2f6117160c01b611eec565b60008111610c4157610bfb6722c2464fc6d3d2fd60c01b611eec565b610c0f679278edc37f34bddc60c01b611eec565b6040517f668a7c4200000000000000000000000000000000000000000000000000000000815260040160405180910390fd5b610c556711978e75651bec7f60c01b611eec565b610c69678289476ce5affd7f60c01b611eec565b6000600260003373ffffffffffffffffffffffffffffffffffffffff1673ffffffffffffffffffffffffffffffffffffffff16815260200190815260200160002081905550610cc267bfdf2c72f2a4274b60c01b611eec565b610cd667cbb6ba26b4e6ed2e60c01b611eec565b60003373ffffffffffffffffffffffffffffffffffffffff1682604051610cfc90612232565b60006040518083038185875af1925050503d8060008114610d39576040519150601f19603f3d011682016040523d82523d6000602084013e610d3e565b606091505b50509050610d5667b571b1d444d3b03d60c01b611eec565b610d6a67bbceebe56dc5d6de60c01b611eec565b80610dc957610d836766a1dcd450600dd960c01b611eec565b610d9767314a36501326365460c01b611eec565b6040517f03f43fc800000000000000000000000000000000000000000000000000000000815260040160405180910390fd5b610ddd6743db256b60d4948f60c01b611eec565b50506001600081905550565b610dfc6655a9bd420540e560c01b611eec565b60026000541415610e42576040517f08c379a0000000000000000000000000000000000000000000000000000000008152600401610e39906121e1565b60405180910390fd5b6002600081905550610e5e672ba783672c860dda60c01b611eec565b610e72679381e090b3974b8060c01b611eec565b8181610e8867724373cfb0476faf60c01b611eec565b610e9c677ca42944a238c75360c01b611eec565b610eb06719c0806bf3f1ba7960c01b611eec565b6000600160008473ffffffffffffffffffffffffffffffffffffffff1673ffffffffffffffffffffffffffffffffffffffff1681526020019081526020016000206000838152602001908152602001600020604051806040016040529081600082015481526020016001820160009054906101000a900473ffffffffffffffffffffffffffffffffffffffff1673ffffffffffffffffffffffffffffffffffffffff1673ffffffffffffffffffffffffffffffffffffffff16815250509050610f83671a84999ebe1b88c960c01b611eec565b610f9767959c30f3ad9df08460c01b611eec565b600081600001511161100a57610fb7678e75d0811b94193e60c01b611eec565b610fcb6759ce1e4fe55c9baa60c01b611eec565b82826040517f6d350f22000000000000000000000000000000000000000000000000000000008152600401611001929190612119565b60405180910390fd5b61101e6794a437209346da3360c01b611eec565b611032679aed328e0e2043e960c01b611eec565b61104667edb8e80c8aa68b2a60c01b611eec565b61105a67c7e904260d1ecd0660c01b611eec565b61106e67cbd538b50cfd29c360c01b611eec565b61108267b506b26ddb24fa4860c01b611eec565b6000600160008773ffffffffffffffffffffffffffffffffffffffff1673ffffffffffffffffffffffffffffffffffffffff1681526020019081526020016000206000868152602001908152602001600020604051806040016040529081600082015481526020016001820160009054906101000a900473ffffffffffffffffffffffffffffffffffffffff1673ffffffffffffffffffffffffffffffffffffffff1673ffffffffffffffffffffffffffffffffffffffff1681525050905061115567c4c2e3174b33332e60c01b611eec565b6111696724007198c0c17e5160c01b611eec565b80600001513410156112315761118967c8cd84789b75a07960c01b611eec565b61119d673ef288f0c4c9e22b60c01b611eec565b8585600160008973ffffffffffffffffffffffffffffffffffffffff1673ffffffffffffffffffffffffffffffffffffffff1681526020019081526020016000206000888152602001908152602001600020600001546040517f817ce9f100000000000000000000000000000000000000000000000000000000815260040161122893929190612247565b60405180910390fd5b611245679059489255fc26ac60c01b611eec565b611259679784cf4b51359a3c60c01b611eec565b3460026000836020015173ffffffffffffffffffffffffffffffffffffffff1673ffffffffffffffffffffffffffffffffffffffff168152602001908152602001600020546112a891906122ad565b60026000836020015173ffffffffffffffffffffffffffffffffffffffff1673ffffffffffffffffffffffffffffffffffffffff168152602001908152602001600020819055506113036776becbb3ec2b646060c01b611eec565b600160008773ffffffffffffffffffffffffffffffffffffffff1673ffffffffffffffffffffffffffffffffffffffff16815260200190815260200160002060008681526020019081526020016000206000808201600090556001820160006101000a81549073ffffffffffffffffffffffffffffffffffffffff02191690555050611399671bf6548b527b6a3c60c01b611eec565b6113ad678b439b3c779ee40660c01b611eec565b8573ffffffffffffffffffffffffffffffffffffffff166342842e0e826020015133886040518463ffffffff1660e01b81526004016113ee93929190612303565b600060405180830381600087803b15801561140857600080fd5b505af115801561141c573d6000803e3d6000fd5b5050505061143467f37be70a896cbd2660c01b611eec565b61144867deba0fc0aa99d66960c01b611eec565b848673ffffffffffffffffffffffffffffffffffffffff163373ffffffffffffffffffffffffffffffffffffffff167f263223b1dd81e51054a4e6f791d45a4a1ddb4aadcd93a2dfd892615c3fdac18784600001516040516114aa9190611fc8565b60405180910390a45050505060016000819055505050565b6114d667c2017557e2a48e0660c01b611eec565b8181336114ed67657f0923b55e375b60c01b611eec565b61150167b0fb65a35c0261f260c01b611eec565b611515670526d59af46322cb60c01b611eec565b600083905061152e67610dfc9eb53a6bc360c01b611eec565b611542673cb83bbfcecfba6660c01b611eec565b60008173ffffffffffffffffffffffffffffffffffffffff16636352211e856040518263ffffffff1660e01b815260040161157d9190611fc8565b60206040518083038186803b15801561159557600080fd5b505afa1580156115a9573d6000803e3d6000fd5b505050506040513d601f19601f820116820180604052508101906115cd9190612157565b90506115e367842336c7815a03cd60c01b611eec565b6115f76781332978e77d2cbb60c01b611eec565b8073ffffffffffffffffffffffffffffffffffffffff168373ffffffffffffffffffffffffffffffffffffffff16146116845761163e67ecb87ad81da6e39160c01b611eec565b61165267cfc8659c1c70936260c01b611eec565b6040517f94953b6000000000000000000000000000000000000000000000000000000000815260040160405180910390fd5b61169867e2b1c8cb1ce72f7060c01b611eec565b6116ac67772db97c9720409660c01b611eec565b6116c067b728b5b30548d5dd60c01b611eec565b6116d467d8e6457127558c0160c01b611eec565b86866116ea67724373cfb0476faf60c01b611eec565b6116fe677ca42944a238c75360c01b611eec565b6117126719c0806bf3f1ba7960c01b611eec565b6000600160008473ffffffffffffffffffffffffffffffffffffffff1673ffffffffffffffffffffffffffffffffffffffff1681526020019081526020016000206000838152602001908152602001600020604051806040016040529081600082015481526020016001820160009054906101000a900473ffffffffffffffffffffffffffffffffffffffff1673ffffffffffffffffffffffffffffffffffffffff1673ffffffffffffffffffffffffffffffffffffffff168152505090506117e5671a84999ebe1b88c960c01b611eec565b6117f967959c30f3ad9df08460c01b611eec565b600081600001511161186c57611819678e75d0811b94193e60c01b611eec565b61182d6759ce1e4fe55c9baa60c01b611eec565b82826040517f6d350f22000000000000000000000000000000000000000000000000000000008152600401611863929190612119565b60405180910390fd5b6118806794a437209346da3360c01b611eec565b611894679aed328e0e2043e960c01b611eec565b6118a867c96b76b7246590d360c01b611eec565b6118bc67d2c6832805dd350c60c01b611eec565b6118d06794b6e306cbd486cf60c01b611eec565b600160008b73ffffffffffffffffffffffffffffffffffffffff1673ffffffffffffffffffffffffffffffffffffffff16815260200190815260200160002060008a81526020019081526020016000206000808201600090556001820160006101000a81549073ffffffffffffffffffffffffffffffffffffffff0219169055505061196667146ae21f8e82050f60c01b611eec565b61197a67222ffc16f41adb2460c01b611eec565b8973ffffffffffffffffffffffffffffffffffffffff163373ffffffffffffffffffffffffffffffffffffffff167f510d5293f19c115316140ac4077bf6b81369643e37d07bcedf1e8e223217b81c8b6040516119d79190611fc8565b60405180910390a350505050505050505050565b6119ff670587f221adc09c2e60c01b611eec565b828233611a1667657f0923b55e375b60c01b611eec565b611a2a67b0fb65a35c0261f260c01b611eec565b611a3e670526d59af46322cb60c01b611eec565b6000839050611a5767610dfc9eb53a6bc360c01b611eec565b611a6b673cb83bbfcecfba6660c01b611eec565b60008173ffffffffffffffffffffffffffffffffffffffff16636352211e856040518263ffffffff1660e01b8152600401611aa69190611fc8565b60206040518083038186803b158015611abe57600080fd5b505afa158015611ad2573d6000803e3d6000fd5b505050506040513d601f19601f82011682018060405250810190611af69190612157565b9050611b0c67842336c7815a03cd60c01b611eec565b611b206781332978e77d2cbb60c01b611eec565b8073ffffffffffffffffffffffffffffffffffffffff168373ffffffffffffffffffffffffffffffffffffffff1614611bad57611b6767ecb87ad81da6e39160c01b611eec565b611b7b67cfc8659c1c70936260c01b611eec565b6040517f94953b6000000000000000000000000000000000000000000000000000000000815260040160405180910390fd5b611bc167e2b1c8cb1ce72f7060c01b611eec565b611bd567772db97c9720409660c01b611eec565b611be9676e2fa2966c622f1260c01b611eec565b611bfd671138e2ace66833d160c01b611eec565b8787611c1367724373cfb0476faf60c01b611eec565b611c27677ca42944a238c75360c01b611eec565b611c3b6719c0806bf3f1ba7960c01b611eec565b6000600160008473ffffffffffffffffffffffffffffffffffffffff1673ffffffffffffffffffffffffffffffffffffffff1681526020019081526020016000206000838152602001908152602001600020604051806040016040529081600082015481526020016001820160009054906101000a900473ffffffffffffffffffffffffffffffffffffffff1673ffffffffffffffffffffffffffffffffffffffff1673ffffffffffffffffffffffffffffffffffffffff16815250509050611d0e671a84999ebe1b88c960c01b611eec565b611d2267959c30f3ad9df08460c01b611eec565b6000816000015111611d9557611d42678e75d0811b94193e60c01b611eec565b611d566759ce1e4fe55c9baa60c01b611eec565b82826040517f6d350f22000000000000000000000000000000000000000000000000000000008152600401611d8c929190612119565b60405180910390fd5b611da96794a437209346da3360c01b611eec565b611dbd679aed328e0e2043e960c01b611eec565b611dd1673b02d88e2e4705d060c01b611eec565b611de567fc2f0fe23bf3339360c01b611eec565b611df96784d36fee020d0cdb60c01b611eec565b88600160008d73ffffffffffffffffffffffffffffffffffffffff1673ffffffffffffffffffffffffffffffffffffffff16815260200190815260200160002060008c815260200190815260200160002060000181905550611e6567647018ee2edb42e660c01b611eec565b611e796794e4f324b5e6950e60c01b611eec565b898b73ffffffffffffffffffffffffffffffffffffffff163373ffffffffffffffffffffffffffffffffffffffff167fd8c9d4c3e24291376076c3d2c9f426d5cfac54e1e229830c764f941426c070fa8c604051611ed79190611fc8565b60405180910390a45050505050505050505050565b50565b604051806040016040528060008152602001600073ffffffffffffffffffffffffffffffffffffffff1681525090565b600080fd5b600073ffffffffffffffffffffffffffffffffffffffff82169050919050565b6000611f4f82611f24565b9050919050565b611f5f81611f44565b8114611f6a57600080fd5b50565b600081359050611f7c81611f56565b92915050565b600060208284031215611f9857611f97611f1f565b5b6000611fa684828501611f6d565b91505092915050565b6000819050919050565b611fc281611faf565b82525050565b6000602082019050611fdd6000830184611fb9565b92915050565b611fec81611faf565b8114611ff757600080fd5b50565b60008135905061200981611fe3565b92915050565b6000806040838503121561202657612025611f1f565b5b600061203485828601611f6d565b925050602061204585828601611ffa565b9150509250929050565b61205881611faf565b82525050565b61206781611f44565b82525050565b604082016000820151612083600085018261204f565b506020820151612096602085018261205e565b50505050565b60006040820190506120b1600083018461206d565b92915050565b6000806000606084860312156120d0576120cf611f1f565b5b60006120de86828701611f6d565b93505060206120ef86828701611ffa565b925050604061210086828701611ffa565b9150509250925092565b61211381611f44565b82525050565b600060408201905061212e600083018561210a565b61213b6020830184611fb9565b9392505050565b60008151905061215181611f56565b92915050565b60006020828403121561216d5761216c611f1f565b5b600061217b84828501612142565b91505092915050565b600082825260208201905092915050565b7f5265656e7472616e637947756172643a207265656e7472616e742063616c6c00600082015250565b60006121cb601f83612184565b91506121d682612195565b602082019050919050565b600060208201905081810360008301526121fa816121be565b9050919050565b600081905092915050565b50565b600061221c600083612201565b91506122278261220c565b600082019050919050565b600061223d8261220f565b9150819050919050565b600060608201905061225c600083018661210a565b6122696020830185611fb9565b6122766040830184611fb9565b949350505050565b7f4e487b7100000000000000000000000000000000000000000000000000000000600052601160045260246000fd5b60006122b882611faf565b91506122c383611faf565b9250827fffffffffffffffffffffffffffffffffffffffffffffffffffffffffffffffff038211156122f8576122f761227e565b5b828201905092915050565b6000606082019050612318600083018661210a565b612325602083018561210a565b6123326040830184611fb9565b94935050505056fea26469706673582212203e371d76958fd7c79cbefa4eb346089ffb191215c748d657326d7ae6951a411664736f6c63430008080033","opcodes":"PUSH1 0x80 PUSH1 0x40 MSTORE CALLVALUE DUP1 ISZERO PUSH2 0x10 JUMPI PUSH1 0x0 DUP1 REVERT JUMPDEST POP PUSH1 0x1 PUSH1 0x0 DUP2 SWAP1 SSTORE POP PUSH2 0x2370 DUP1 PUSH2 0x28 PUSH1 0x0 CODECOPY PUSH1 0x0 RETURN INVALID PUSH1 0x80 PUSH1 0x40 MSTORE PUSH1 0x4 CALLDATASIZE LT PUSH2 0x70 JUMPI PUSH1 0x0 CALLDATALOAD PUSH1 0xE0 SHR DUP1 PUSH4 0x9038E693 GT PUSH2 0x4E JUMPI DUP1 PUSH4 0x9038E693 EQ PUSH2 0x118 JUMPI DUP1 PUSH4 0x9F37092A EQ PUSH2 0x12F JUMPI DUP1 PUSH4 0xB2DDEE06 EQ PUSH2 0x14B JUMPI DUP1 PUSH4 0xF772ADF1 EQ PUSH2 0x174 JUMPI PUSH2 0x70 JUMP JUMPDEST DUP1 PUSH4 0x30CFEDA9 EQ PUSH2 0x75 JUMPI DUP1 PUSH4 0x88700D1C EQ PUSH2 0xB2 JUMPI DUP1 PUSH4 0x89BFD38F EQ PUSH2 0xEF JUMPI JUMPDEST PUSH1 0x0 DUP1 REVERT JUMPDEST CALLVALUE DUP1 ISZERO PUSH2 0x81 JUMPI PUSH1 0x0 DUP1 REVERT JUMPDEST POP PUSH2 0x9C PUSH1 0x4 DUP1 CALLDATASIZE SUB DUP2 ADD SWAP1 PUSH2 0x97 SWAP2 SWAP1 PUSH2 0x1F82 JUMP JUMPDEST PUSH2 0x19D JUMP JUMPDEST PUSH1 0x40 MLOAD PUSH2 0xA9 SWAP2 SWAP1 PUSH2 0x1FC8 JUMP JUMPDEST PUSH1 0x40 MLOAD DUP1 SWAP2 SUB SWAP1 RETURN JUMPDEST CALLVALUE DUP1 ISZERO PUSH2 0xBE JUMPI PUSH1 0x0 DUP1 REVERT JUMPDEST POP PUSH2 0xD9 PUSH1 0x4 DUP1 CALLDATASIZE SUB DUP2 ADD SWAP1 PUSH2 0xD4 SWAP2 SWAP1 PUSH2 0x200F JUMP JUMPDEST PUSH2 0x222 JUMP JUMPDEST PUSH1 0x40 MLOAD PUSH2 0xE6 SWAP2 SWAP1 PUSH2 0x209C JUMP JUMPDEST PUSH1 0x40 MLOAD DUP1 SWAP2 SUB SWAP1 RETURN JUMPDEST CALLVALUE DUP1 ISZERO PUSH2 0xFB JUMPI PUSH1 0x0 DUP1 REVERT JUMPDEST POP PUSH2 0x116 PUSH1 0x4 DUP1 CALLDATASIZE SUB DUP2 ADD SWAP1 PUSH2 0x111 SWAP2 SWAP1 PUSH2 0x20B7 JUMP JUMPDEST PUSH2 0x329 JUMP JUMPDEST STOP JUMPDEST CALLVALUE DUP1 ISZERO PUSH2 0x124 JUMPI PUSH1 0x0 DUP1 REVERT JUMPDEST POP PUSH2 0x12D PUSH2 0xAC1 JUMP JUMPDEST STOP JUMPDEST PUSH2 0x149 PUSH1 0x4 DUP1 CALLDATASIZE SUB DUP2 ADD SWAP1 PUSH2 0x144 SWAP2 SWAP1 PUSH2 0x200F JUMP JUMPDEST PUSH2 0xDE9 JUMP JUMPDEST STOP JUMPDEST CALLVALUE DUP1 ISZERO PUSH2 0x157 JUMPI PUSH1 0x0 DUP1 REVERT JUMPDEST POP PUSH2 0x172 PUSH1 0x4 DUP1 CALLDATASIZE SUB DUP2 ADD SWAP1 PUSH2 0x16D SWAP2 SWAP1 PUSH2 0x200F JUMP JUMPDEST PUSH2 0x14C2 JUMP JUMPDEST STOP JUMPDEST CALLVALUE DUP1 ISZERO PUSH2 0x180 JUMPI PUSH1 0x0 DUP1 REVERT JUMPDEST POP PUSH2 0x19B PUSH1 0x4 DUP1 CALLDATASIZE SUB DUP2 ADD SWAP1 PUSH2 0x196 SWAP2 SWAP1 PUSH2 0x20B7 JUMP JUMPDEST PUSH2 0x19EB JUMP JUMPDEST STOP JUMPDEST PUSH1 0x0 PUSH2 0x1B3 PUSH8 0xA505E81F4712666C PUSH1 0xC0 SHL PUSH2 0x1EEC JUMP JUMPDEST PUSH2 0x1C7 PUSH8 0x534457D52D3BB97D PUSH1 0xC0 SHL PUSH2 0x1EEC JUMP JUMPDEST PUSH2 0x1DB PUSH8 0xC6D23E6D7BB7E847 PUSH1 0xC0 SHL PUSH2 0x1EEC JUMP JUMPDEST PUSH1 0x2 PUSH1 0x0 DUP4 PUSH20 0xFFFFFFFFFFFFFFFFFFFFFFFFFFFFFFFFFFFFFFFF AND PUSH20 0xFFFFFFFFFFFFFFFFFFFFFFFFFFFFFFFFFFFFFFFF AND DUP2 MSTORE PUSH1 0x20 ADD SWAP1 DUP2 MSTORE PUSH1 0x20 ADD PUSH1 0x0 KECCAK256 SLOAD SWAP1 POP SWAP2 SWAP1 POP JUMP JUMPDEST PUSH2 0x22A PUSH2 0x1EEF JUMP JUMPDEST PUSH2 0x23E PUSH8 0xEC79837D71217681 PUSH1 0xC0 SHL PUSH2 0x1EEC JUMP JUMPDEST PUSH2 0x252 PUSH8 0x397A68DFEB46B8CA PUSH1 0xC0 SHL PUSH2 0x1EEC JUMP JUMPDEST PUSH2 0x266 PUSH8 0xA23F7C4D53ECF4C1 PUSH1 0xC0 SHL PUSH2 0x1EEC JUMP JUMPDEST PUSH1 0x1 PUSH1 0x0 DUP5 PUSH20 0xFFFFFFFFFFFFFFFFFFFFFFFFFFFFFFFFFFFFFFFF AND PUSH20 0xFFFFFFFFFFFFFFFFFFFFFFFFFFFFFFFFFFFFFFFF AND DUP2 MSTORE PUSH1 0x20 ADD SWAP1 DUP2 MSTORE PUSH1 0x20 ADD PUSH1 0x0 KECCAK256 PUSH1 0x0 DUP4 DUP2 MSTORE PUSH1 0x20 ADD SWAP1 DUP2 MSTORE PUSH1 0x20 ADD PUSH1 0x0 KECCAK256 PUSH1 0x40 MLOAD DUP1 PUSH1 0x40 ADD PUSH1 0x40 MSTORE SWAP1 DUP2 PUSH1 0x0 DUP3 ADD SLOAD DUP2 MSTORE PUSH1 0x20 ADD PUSH1 0x1 DUP3 ADD PUSH1 0x0 SWAP1 SLOAD SWAP1 PUSH2 0x100 EXP SWAP1 DIV PUSH20 0xFFFFFFFFFFFFFFFFFFFFFFFFFFFFFFFFFFFFFFFF AND PUSH20 0xFFFFFFFFFFFFFFFFFFFFFFFFFFFFFFFFFFFFFFFF AND PUSH20 0xFFFFFFFFFFFFFFFFFFFFFFFFFFFFFFFFFFFFFFFF AND DUP2 MSTORE POP POP SWAP1 POP SWAP3 SWAP2 POP POP JUMP JUMPDEST PUSH2 0x33D PUSH8 0x225C650C5E54C6AA PUSH1 0xC0 SHL PUSH2 0x1EEC JUMP JUMPDEST DUP3 DUP3 CALLER PUSH2 0x354 PUSH8 0x6BB804301AE3060F PUSH1 0xC0 SHL PUSH2 0x1EEC JUMP JUMPDEST PUSH2 0x368 PUSH8 0x6CEBBF3452D01BCD PUSH1 0xC0 SHL PUSH2 0x1EEC JUMP JUMPDEST PUSH2 0x37C PUSH8 0xBE41DA4FC024BA16 PUSH1 0xC0 SHL PUSH2 0x1EEC JUMP JUMPDEST PUSH1 0x0 PUSH1 0x1 PUSH1 0x0 DUP6 PUSH20 0xFFFFFFFFFFFFFFFFFFFFFFFFFFFFFFFFFFFFFFFF AND PUSH20 0xFFFFFFFFFFFFFFFFFFFFFFFFFFFFFFFFFFFFFFFF AND DUP2 MSTORE PUSH1 0x20 ADD SWAP1 DUP2 MSTORE PUSH1 0x20 ADD PUSH1 0x0 KECCAK256 PUSH1 0x0 DUP5 DUP2 MSTORE PUSH1 0x20 ADD SWAP1 DUP2 MSTORE PUSH1 0x20 ADD PUSH1 0x0 KECCAK256 PUSH1 0x40 MLOAD DUP1 PUSH1 0x40 ADD PUSH1 0x40 MSTORE SWAP1 DUP2 PUSH1 0x0 DUP3 ADD SLOAD DUP2 MSTORE PUSH1 0x20 ADD PUSH1 0x1 DUP3 ADD PUSH1 0x0 SWAP1 SLOAD SWAP1 PUSH2 0x100 EXP SWAP1 DIV PUSH20 0xFFFFFFFFFFFFFFFFFFFFFFFFFFFFFFFFFFFFFFFF AND PUSH20 0xFFFFFFFFFFFFFFFFFFFFFFFFFFFFFFFFFFFFFFFF AND PUSH20 0xFFFFFFFFFFFFFFFFFFFFFFFFFFFFFFFFFFFFFFFF AND DUP2 MSTORE POP POP SWAP1 POP PUSH2 0x44F PUSH8 0xD21E255BED93F42F PUSH1 0xC0 SHL PUSH2 0x1EEC JUMP JUMPDEST PUSH2 0x463 PUSH8 0x982BAF3EE7ED426 PUSH1 0xC0 SHL PUSH2 0x1EEC JUMP JUMPDEST PUSH1 0x0 DUP2 PUSH1 0x0 ADD MLOAD GT ISZERO PUSH2 0x4D7 JUMPI PUSH2 0x484 PUSH8 0x79C37E209E8BE5D2 PUSH1 0xC0 SHL PUSH2 0x1EEC JUMP JUMPDEST PUSH2 0x498 PUSH8 0xBA617E9BF13B9681 PUSH1 0xC0 SHL PUSH2 0x1EEC JUMP JUMPDEST DUP4 DUP4 PUSH1 0x40 MLOAD PUSH32 0xC2F0D70900000000000000000000000000000000000000000000000000000000 DUP2 MSTORE PUSH1 0x4 ADD PUSH2 0x4CE SWAP3 SWAP2 SWAP1 PUSH2 0x2119 JUMP JUMPDEST PUSH1 0x40 MLOAD DUP1 SWAP2 SUB SWAP1 REVERT JUMPDEST PUSH2 0x4EB PUSH8 0x9678058CE4D34BC3 PUSH1 0xC0 SHL PUSH2 0x1EEC JUMP JUMPDEST PUSH2 0x4FF PUSH8 0xC9C1E740CB554859 PUSH1 0xC0 SHL PUSH2 0x1EEC JUMP JUMPDEST PUSH2 0x513 PUSH8 0xC36AD235203E7E95 PUSH1 0xC0 SHL PUSH2 0x1EEC JUMP JUMPDEST PUSH2 0x527 PUSH8 0x51A958766EF5034C PUSH1 0xC0 SHL PUSH2 0x1EEC JUMP JUMPDEST DUP7 DUP7 CALLER PUSH2 0x53E PUSH8 0x657F0923B55E375B PUSH1 0xC0 SHL PUSH2 0x1EEC JUMP JUMPDEST PUSH2 0x552 PUSH8 0xB0FB65A35C0261F2 PUSH1 0xC0 SHL PUSH2 0x1EEC JUMP JUMPDEST PUSH2 0x566 PUSH8 0x526D59AF46322CB PUSH1 0xC0 SHL PUSH2 0x1EEC JUMP JUMPDEST PUSH1 0x0 DUP4 SWAP1 POP PUSH2 0x57F PUSH8 0x610DFC9EB53A6BC3 PUSH1 0xC0 SHL PUSH2 0x1EEC JUMP JUMPDEST PUSH2 0x593 PUSH8 0x3CB83BBFCECFBA66 PUSH1 0xC0 SHL PUSH2 0x1EEC JUMP JUMPDEST PUSH1 0x0 DUP2 PUSH20 0xFFFFFFFFFFFFFFFFFFFFFFFFFFFFFFFFFFFFFFFF AND PUSH4 0x6352211E DUP6 PUSH1 0x40 MLOAD DUP3 PUSH4 0xFFFFFFFF AND PUSH1 0xE0 SHL DUP2 MSTORE PUSH1 0x4 ADD PUSH2 0x5CE SWAP2 SWAP1 PUSH2 0x1FC8 JUMP JUMPDEST PUSH1 0x20 PUSH1 0x40 MLOAD DUP1 DUP4 SUB DUP2 DUP7 DUP1 EXTCODESIZE ISZERO DUP1 ISZERO PUSH2 0x5E6 JUMPI PUSH1 0x0 DUP1 REVERT JUMPDEST POP GAS STATICCALL ISZERO DUP1 ISZERO PUSH2 0x5FA JUMPI RETURNDATASIZE PUSH1 0x0 DUP1 RETURNDATACOPY RETURNDATASIZE PUSH1 0x0 REVERT JUMPDEST POP POP POP POP PUSH1 0x40 MLOAD RETURNDATASIZE PUSH1 0x1F NOT PUSH1 0x1F DUP3 ADD AND DUP3 ADD DUP1 PUSH1 0x40 MSTORE POP DUP2 ADD SWAP1 PUSH2 0x61E SWAP2 SWAP1 PUSH2 0x2157 JUMP JUMPDEST SWAP1 POP PUSH2 0x634 PUSH8 0x842336C7815A03CD PUSH1 0xC0 SHL PUSH2 0x1EEC JUMP JUMPDEST PUSH2 0x648 PUSH8 0x81332978E77D2CBB PUSH1 0xC0 SHL PUSH2 0x1EEC JUMP JUMPDEST DUP1 PUSH20 0xFFFFFFFFFFFFFFFFFFFFFFFFFFFFFFFFFFFFFFFF AND DUP4 PUSH20 0xFFFFFFFFFFFFFFFFFFFFFFFFFFFFFFFFFFFFFFFF AND EQ PUSH2 0x6D5 JUMPI PUSH2 0x68F PUSH8 0xECB87AD81DA6E391 PUSH1 0xC0 SHL PUSH2 0x1EEC JUMP JUMPDEST PUSH2 0x6A3 PUSH8 0xCFC8659C1C709362 PUSH1 0xC0 SHL PUSH2 0x1EEC JUMP JUMPDEST PUSH1 0x40 MLOAD PUSH32 0x94953B6000000000000000000000000000000000000000000000000000000000 DUP2 MSTORE PUSH1 0x4 ADD PUSH1 0x40 MLOAD DUP1 SWAP2 SUB SWAP1 REVERT JUMPDEST PUSH2 0x6E9 PUSH8 0xE2B1C8CB1CE72F70 PUSH1 0xC0 SHL PUSH2 0x1EEC JUMP JUMPDEST PUSH2 0x6FD PUSH8 0x772DB97C97204096 PUSH1 0xC0 SHL PUSH2 0x1EEC JUMP JUMPDEST PUSH2 0x711 PUSH8 0xC398AEAAA73E1338 PUSH1 0xC0 SHL PUSH2 0x1EEC JUMP JUMPDEST PUSH2 0x725 PUSH8 0x6B9E44BCDBC7F4FD PUSH1 0xC0 SHL PUSH2 0x1EEC JUMP JUMPDEST PUSH2 0x739 PUSH8 0xD3DAC03EA2DC8778 PUSH1 0xC0 SHL PUSH2 0x1EEC JUMP JUMPDEST PUSH2 0x74D PUSH8 0x3FD342F0A141406 PUSH1 0xC0 SHL PUSH2 0x1EEC JUMP JUMPDEST PUSH1 0x0 DUP11 GT PUSH2 0x7AF JUMPI PUSH2 0x769 PUSH8 0x70DC5F6A63CE7DCA PUSH1 0xC0 SHL PUSH2 0x1EEC JUMP JUMPDEST PUSH2 0x77D PUSH8 0xD33A7C5D85D0AB32 PUSH1 0xC0 SHL PUSH2 0x1EEC JUMP JUMPDEST PUSH1 0x40 MLOAD PUSH32 0x96D7ECF00000000000000000000000000000000000000000000000000000000 DUP2 MSTORE PUSH1 0x4 ADD PUSH1 0x40 MLOAD DUP1 SWAP2 SUB SWAP1 REVERT JUMPDEST PUSH2 0x7C3 PUSH8 0xBE6FA8B23FE87E11 PUSH1 0xC0 SHL PUSH2 0x1EEC JUMP JUMPDEST PUSH2 0x7D7 PUSH8 0xA916D06DADBAF897 PUSH1 0xC0 SHL PUSH2 0x1EEC JUMP JUMPDEST PUSH2 0x7EB PUSH8 0xBF3DAEE83B88C14A PUSH1 0xC0 SHL PUSH2 0x1EEC JUMP JUMPDEST PUSH1 0x0 DUP13 SWAP1 POP PUSH2 0x804 PUSH8 0x6B2AF06B484579D7 PUSH1 0xC0 SHL PUSH2 0x1EEC JUMP JUMPDEST PUSH2 0x818 PUSH8 0xB830D3647C7F8DE8 PUSH1 0xC0 SHL PUSH2 0x1EEC JUMP JUMPDEST ADDRESS PUSH20 0xFFFFFFFFFFFFFFFFFFFFFFFFFFFFFFFFFFFFFFFF AND DUP2 PUSH20 0xFFFFFFFFFFFFFFFFFFFFFFFFFFFFFFFFFFFFFFFF AND PUSH4 0x81812FC DUP15 PUSH1 0x40 MLOAD DUP3 PUSH4 0xFFFFFFFF AND PUSH1 0xE0 SHL DUP2 MSTORE PUSH1 0x4 ADD PUSH2 0x868 SWAP2 SWAP1 PUSH2 0x1FC8 JUMP JUMPDEST PUSH1 0x20 PUSH1 0x40 MLOAD DUP1 DUP4 SUB DUP2 DUP7 DUP1 EXTCODESIZE ISZERO DUP1 ISZERO PUSH2 0x880 JUMPI PUSH1 0x0 DUP1 REVERT JUMPDEST POP GAS STATICCALL ISZERO DUP1 ISZERO PUSH2 0x894 JUMPI RETURNDATASIZE PUSH1 0x0 DUP1 RETURNDATACOPY RETURNDATASIZE PUSH1 0x0 REVERT JUMPDEST POP POP POP POP PUSH1 0x40 MLOAD RETURNDATASIZE PUSH1 0x1F NOT PUSH1 0x1F DUP3 ADD AND DUP3 ADD DUP1 PUSH1 0x40 MSTORE POP DUP2 ADD SWAP1 PUSH2 0x8B8 SWAP2 SWAP1 PUSH2 0x2157 JUMP JUMPDEST PUSH20 0xFFFFFFFFFFFFFFFFFFFFFFFFFFFFFFFFFFFFFFFF AND EQ PUSH2 0x92D JUMPI PUSH2 0x8E7 PUSH8 0xBA60B7D33EA813E5 PUSH1 0xC0 SHL PUSH2 0x1EEC JUMP JUMPDEST PUSH2 0x8FB PUSH8 0x3D6824BCBA6AA921 PUSH1 0xC0 SHL PUSH2 0x1EEC JUMP JUMPDEST PUSH1 0x40 MLOAD PUSH32 0x13E7D28D00000000000000000000000000000000000000000000000000000000 DUP2 MSTORE PUSH1 0x4 ADD PUSH1 0x40 MLOAD DUP1 SWAP2 SUB SWAP1 REVERT JUMPDEST PUSH2 0x941 PUSH8 0x5E14F8465CC7D3DA PUSH1 0xC0 SHL PUSH2 0x1EEC JUMP JUMPDEST PUSH2 0x955 PUSH8 0xF64B074A286B6716 PUSH1 0xC0 SHL PUSH2 0x1EEC JUMP JUMPDEST PUSH1 0x40 MLOAD DUP1 PUSH1 0x40 ADD PUSH1 0x40 MSTORE DUP1 DUP13 DUP2 MSTORE PUSH1 0x20 ADD CALLER PUSH20 0xFFFFFFFFFFFFFFFFFFFFFFFFFFFFFFFFFFFFFFFF AND DUP2 MSTORE POP PUSH1 0x1 PUSH1 0x0 DUP16 PUSH20 0xFFFFFFFFFFFFFFFFFFFFFFFFFFFFFFFFFFFFFFFF AND PUSH20 0xFFFFFFFFFFFFFFFFFFFFFFFFFFFFFFFFFFFFFFFF AND DUP2 MSTORE PUSH1 0x20 ADD SWAP1 DUP2 MSTORE PUSH1 0x20 ADD PUSH1 0x0 KECCAK256 PUSH1 0x0 DUP15 DUP2 MSTORE PUSH1 0x20 ADD SWAP1 DUP2 MSTORE PUSH1 0x20 ADD PUSH1 0x0 KECCAK256 PUSH1 0x0 DUP3 ADD MLOAD DUP2 PUSH1 0x0 ADD SSTORE PUSH1 0x20 DUP3 ADD MLOAD DUP2 PUSH1 0x1 ADD PUSH1 0x0 PUSH2 0x100 EXP DUP2 SLOAD DUP2 PUSH20 0xFFFFFFFFFFFFFFFFFFFFFFFFFFFFFFFFFFFFFFFF MUL NOT AND SWAP1 DUP4 PUSH20 0xFFFFFFFFFFFFFFFFFFFFFFFFFFFFFFFFFFFFFFFF AND MUL OR SWAP1 SSTORE POP SWAP1 POP POP PUSH2 0xA38 PUSH8 0x6BFD23C5C2F6471E PUSH1 0xC0 SHL PUSH2 0x1EEC JUMP JUMPDEST PUSH2 0xA4C PUSH8 0x8DCB365A350DA2B6 PUSH1 0xC0 SHL PUSH2 0x1EEC JUMP JUMPDEST DUP12 DUP14 PUSH20 0xFFFFFFFFFFFFFFFFFFFFFFFFFFFFFFFFFFFFFFFF AND CALLER PUSH20 0xFFFFFFFFFFFFFFFFFFFFFFFFFFFFFFFFFFFFFFFF AND PUSH32 0xD8C9D4C3E24291376076C3D2C9F426D5CFAC54E1E229830C764F941426C070FA DUP15 PUSH1 0x40 MLOAD PUSH2 0xAAA SWAP2 SWAP1 PUSH2 0x1FC8 JUMP JUMPDEST PUSH1 0x40 MLOAD DUP1 SWAP2 SUB SWAP1 LOG4 POP POP POP POP POP POP POP POP POP POP POP POP POP JUMP JUMPDEST PUSH2 0xAD5 PUSH8 0xA9C1C52E0C758980 PUSH1 0xC0 SHL PUSH2 0x1EEC JUMP JUMPDEST PUSH1 0x2 PUSH1 0x0 SLOAD EQ ISZERO PUSH2 0xB1B JUMPI PUSH1 0x40 MLOAD PUSH32 0x8C379A000000000000000000000000000000000000000000000000000000000 DUP2 MSTORE PUSH1 0x4 ADD PUSH2 0xB12 SWAP1 PUSH2 0x21E1 JUMP JUMPDEST PUSH1 0x40 MLOAD DUP1 SWAP2 SUB SWAP1 REVERT JUMPDEST PUSH1 0x2 PUSH1 0x0 DUP2 SWAP1 SSTORE POP PUSH2 0xB37 PUSH8 0x28A107E2FCE4A900 PUSH1 0xC0 SHL PUSH2 0x1EEC JUMP JUMPDEST PUSH2 0xB4B PUSH8 0x68B96BFC58AAC371 PUSH1 0xC0 SHL PUSH2 0x1EEC JUMP JUMPDEST PUSH2 0xB5F PUSH8 0x252555AD712A3AB1 PUSH1 0xC0 SHL PUSH2 0x1EEC JUMP JUMPDEST PUSH2 0xB73 PUSH8 0xC62AD55F8D232629 PUSH1 0xC0 SHL PUSH2 0x1EEC JUMP JUMPDEST PUSH1 0x0 PUSH1 0x2 PUSH1 0x0 CALLER PUSH20 0xFFFFFFFFFFFFFFFFFFFFFFFFFFFFFFFFFFFFFFFF AND PUSH20 0xFFFFFFFFFFFFFFFFFFFFFFFFFFFFFFFFFFFFFFFF AND DUP2 MSTORE PUSH1 0x20 ADD SWAP1 DUP2 MSTORE PUSH1 0x20 ADD PUSH1 0x0 KECCAK256 SLOAD SWAP1 POP PUSH2 0xBCB PUSH8 0x94E33CEFD0D389CD PUSH1 0xC0 SHL PUSH2 0x1EEC JUMP JUMPDEST PUSH2 0xBDF PUSH8 0x1EAC0EDEB2F61171 PUSH1 0xC0 SHL PUSH2 0x1EEC JUMP JUMPDEST PUSH1 0x0 DUP2 GT PUSH2 0xC41 JUMPI PUSH2 0xBFB PUSH8 0x22C2464FC6D3D2FD PUSH1 0xC0 SHL PUSH2 0x1EEC JUMP JUMPDEST PUSH2 0xC0F PUSH8 0x9278EDC37F34BDDC PUSH1 0xC0 SHL PUSH2 0x1EEC JUMP JUMPDEST PUSH1 0x40 MLOAD PUSH32 0x668A7C4200000000000000000000000000000000000000000000000000000000 DUP2 MSTORE PUSH1 0x4 ADD PUSH1 0x40 MLOAD DUP1 SWAP2 SUB SWAP1 REVERT JUMPDEST PUSH2 0xC55 PUSH8 0x11978E75651BEC7F PUSH1 0xC0 SHL PUSH2 0x1EEC JUMP JUMPDEST PUSH2 0xC69 PUSH8 0x8289476CE5AFFD7F PUSH1 0xC0 SHL PUSH2 0x1EEC JUMP JUMPDEST PUSH1 0x0 PUSH1 0x2 PUSH1 0x0 CALLER PUSH20 0xFFFFFFFFFFFFFFFFFFFFFFFFFFFFFFFFFFFFFFFF AND PUSH20 0xFFFFFFFFFFFFFFFFFFFFFFFFFFFFFFFFFFFFFFFF AND DUP2 MSTORE PUSH1 0x20 ADD SWAP1 DUP2 MSTORE PUSH1 0x20 ADD PUSH1 0x0 KECCAK256 DUP2 SWAP1 SSTORE POP PUSH2 0xCC2 PUSH8 0xBFDF2C72F2A4274B PUSH1 0xC0 SHL PUSH2 0x1EEC JUMP JUMPDEST PUSH2 0xCD6 PUSH8 0xCBB6BA26B4E6ED2E PUSH1 0xC0 SHL PUSH2 0x1EEC JUMP JUMPDEST PUSH1 0x0 CALLER PUSH20 0xFFFFFFFFFFFFFFFFFFFFFFFFFFFFFFFFFFFFFFFF AND DUP3 PUSH1 0x40 MLOAD PUSH2 0xCFC SWAP1 PUSH2 0x2232 JUMP JUMPDEST PUSH1 0x0 PUSH1 0x40 MLOAD DUP1 DUP4 SUB DUP2 DUP6 DUP8 GAS CALL SWAP3 POP POP POP RETURNDATASIZE DUP1 PUSH1 0x0 DUP2 EQ PUSH2 0xD39 JUMPI PUSH1 0x40 MLOAD SWAP2 POP PUSH1 0x1F NOT PUSH1 0x3F RETURNDATASIZE ADD AND DUP3 ADD PUSH1 0x40 MSTORE RETURNDATASIZE DUP3 MSTORE RETURNDATASIZE PUSH1 0x0 PUSH1 0x20 DUP5 ADD RETURNDATACOPY PUSH2 0xD3E JUMP JUMPDEST PUSH1 0x60 SWAP2 POP JUMPDEST POP POP SWAP1 POP PUSH2 0xD56 PUSH8 0xB571B1D444D3B03D PUSH1 0xC0 SHL PUSH2 0x1EEC JUMP JUMPDEST PUSH2 0xD6A PUSH8 0xBBCEEBE56DC5D6DE PUSH1 0xC0 SHL PUSH2 0x1EEC JUMP JUMPDEST DUP1 PUSH2 0xDC9 JUMPI PUSH2 0xD83 PUSH8 0x66A1DCD450600DD9 PUSH1 0xC0 SHL PUSH2 0x1EEC JUMP JUMPDEST PUSH2 0xD97 PUSH8 0x314A365013263654 PUSH1 0xC0 SHL PUSH2 0x1EEC JUMP JUMPDEST PUSH1 0x40 MLOAD PUSH32 0x3F43FC800000000000000000000000000000000000000000000000000000000 DUP2 MSTORE PUSH1 0x4 ADD PUSH1 0x40 MLOAD DUP1 SWAP2 SUB SWAP1 REVERT JUMPDEST PUSH2 0xDDD PUSH8 0x43DB256B60D4948F PUSH1 0xC0 SHL PUSH2 0x1EEC JUMP JUMPDEST POP POP PUSH1 0x1 PUSH1 0x0 DUP2 SWAP1 SSTORE POP JUMP JUMPDEST PUSH2 0xDFC PUSH7 0x55A9BD420540E5 PUSH1 0xC0 SHL PUSH2 0x1EEC JUMP JUMPDEST PUSH1 0x2 PUSH1 0x0 SLOAD EQ ISZERO PUSH2 0xE42 JUMPI PUSH1 0x40 MLOAD PUSH32 0x8C379A000000000000000000000000000000000000000000000000000000000 DUP2 MSTORE PUSH1 0x4 ADD PUSH2 0xE39 SWAP1 PUSH2 0x21E1 JUMP JUMPDEST PUSH1 0x40 MLOAD DUP1 SWAP2 SUB SWAP1 REVERT JUMPDEST PUSH1 0x2 PUSH1 0x0 DUP2 SWAP1 SSTORE POP PUSH2 0xE5E PUSH8 0x2BA783672C860DDA PUSH1 0xC0 SHL PUSH2 0x1EEC JUMP JUMPDEST PUSH2 0xE72 PUSH8 0x9381E090B3974B80 PUSH1 0xC0 SHL PUSH2 0x1EEC JUMP JUMPDEST DUP2 DUP2 PUSH2 0xE88 PUSH8 0x724373CFB0476FAF PUSH1 0xC0 SHL PUSH2 0x1EEC JUMP JUMPDEST PUSH2 0xE9C PUSH8 0x7CA42944A238C753 PUSH1 0xC0 SHL PUSH2 0x1EEC JUMP JUMPDEST PUSH2 0xEB0 PUSH8 0x19C0806BF3F1BA79 PUSH1 0xC0 SHL PUSH2 0x1EEC JUMP JUMPDEST PUSH1 0x0 PUSH1 0x1 PUSH1 0x0 DUP5 PUSH20 0xFFFFFFFFFFFFFFFFFFFFFFFFFFFFFFFFFFFFFFFF AND PUSH20 0xFFFFFFFFFFFFFFFFFFFFFFFFFFFFFFFFFFFFFFFF AND DUP2 MSTORE PUSH1 0x20 ADD SWAP1 DUP2 MSTORE PUSH1 0x20 ADD PUSH1 0x0 KECCAK256 PUSH1 0x0 DUP4 DUP2 MSTORE PUSH1 0x20 ADD SWAP1 DUP2 MSTORE PUSH1 0x20 ADD PUSH1 0x0 KECCAK256 PUSH1 0x40 MLOAD DUP1 PUSH1 0x40 ADD PUSH1 0x40 MSTORE SWAP1 DUP2 PUSH1 0x0 DUP3 ADD SLOAD DUP2 MSTORE PUSH1 0x20 ADD PUSH1 0x1 DUP3 ADD PUSH1 0x0 SWAP1 SLOAD SWAP1 PUSH2 0x100 EXP SWAP1 DIV PUSH20 0xFFFFFFFFFFFFFFFFFFFFFFFFFFFFFFFFFFFFFFFF AND PUSH20 0xFFFFFFFFFFFFFFFFFFFFFFFFFFFFFFFFFFFFFFFF AND PUSH20 0xFFFFFFFFFFFFFFFFFFFFFFFFFFFFFFFFFFFFFFFF AND DUP2 MSTORE POP POP SWAP1 POP PUSH2 0xF83 PUSH8 0x1A84999EBE1B88C9 PUSH1 0xC0 SHL PUSH2 0x1EEC JUMP JUMPDEST PUSH2 0xF97 PUSH8 0x959C30F3AD9DF084 PUSH1 0xC0 SHL PUSH2 0x1EEC JUMP JUMPDEST PUSH1 0x0 DUP2 PUSH1 0x0 ADD MLOAD GT PUSH2 0x100A JUMPI PUSH2 0xFB7 PUSH8 0x8E75D0811B94193E PUSH1 0xC0 SHL PUSH2 0x1EEC JUMP JUMPDEST PUSH2 0xFCB PUSH8 0x59CE1E4FE55C9BAA PUSH1 0xC0 SHL PUSH2 0x1EEC JUMP JUMPDEST DUP3 DUP3 PUSH1 0x40 MLOAD PUSH32 0x6D350F2200000000000000000000000000000000000000000000000000000000 DUP2 MSTORE PUSH1 0x4 ADD PUSH2 0x1001 SWAP3 SWAP2 SWAP1 PUSH2 0x2119 JUMP JUMPDEST PUSH1 0x40 MLOAD DUP1 SWAP2 SUB SWAP1 REVERT JUMPDEST PUSH2 0x101E PUSH8 0x94A437209346DA33 PUSH1 0xC0 SHL PUSH2 0x1EEC JUMP JUMPDEST PUSH2 0x1032 PUSH8 0x9AED328E0E2043E9 PUSH1 0xC0 SHL PUSH2 0x1EEC JUMP JUMPDEST PUSH2 0x1046 PUSH8 0xEDB8E80C8AA68B2A PUSH1 0xC0 SHL PUSH2 0x1EEC JUMP JUMPDEST PUSH2 0x105A PUSH8 0xC7E904260D1ECD06 PUSH1 0xC0 SHL PUSH2 0x1EEC JUMP JUMPDEST PUSH2 0x106E PUSH8 0xCBD538B50CFD29C3 PUSH1 0xC0 SHL PUSH2 0x1EEC JUMP JUMPDEST PUSH2 0x1082 PUSH8 0xB506B26DDB24FA48 PUSH1 0xC0 SHL PUSH2 0x1EEC JUMP JUMPDEST PUSH1 0x0 PUSH1 0x1 PUSH1 0x0 DUP8 PUSH20 0xFFFFFFFFFFFFFFFFFFFFFFFFFFFFFFFFFFFFFFFF AND PUSH20 0xFFFFFFFFFFFFFFFFFFFFFFFFFFFFFFFFFFFFFFFF AND DUP2 MSTORE PUSH1 0x20 ADD SWAP1 DUP2 MSTORE PUSH1 0x20 ADD PUSH1 0x0 KECCAK256 PUSH1 0x0 DUP7 DUP2 MSTORE PUSH1 0x20 ADD SWAP1 DUP2 MSTORE PUSH1 0x20 ADD PUSH1 0x0 KECCAK256 PUSH1 0x40 MLOAD DUP1 PUSH1 0x40 ADD PUSH1 0x40 MSTORE SWAP1 DUP2 PUSH1 0x0 DUP3 ADD SLOAD DUP2 MSTORE PUSH1 0x20 ADD PUSH1 0x1 DUP3 ADD PUSH1 0x0 SWAP1 SLOAD SWAP1 PUSH2 0x100 EXP SWAP1 DIV PUSH20 0xFFFFFFFFFFFFFFFFFFFFFFFFFFFFFFFFFFFFFFFF AND PUSH20 0xFFFFFFFFFFFFFFFFFFFFFFFFFFFFFFFFFFFFFFFF AND PUSH20 0xFFFFFFFFFFFFFFFFFFFFFFFFFFFFFFFFFFFFFFFF AND DUP2 MSTORE POP POP SWAP1 POP PUSH2 0x1155 PUSH8 0xC4C2E3174B33332E PUSH1 0xC0 SHL PUSH2 0x1EEC JUMP JUMPDEST PUSH2 0x1169 PUSH8 0x24007198C0C17E51 PUSH1 0xC0 SHL PUSH2 0x1EEC JUMP JUMPDEST DUP1 PUSH1 0x0 ADD MLOAD CALLVALUE LT ISZERO PUSH2 0x1231 JUMPI PUSH2 0x1189 PUSH8 0xC8CD84789B75A079 PUSH1 0xC0 SHL PUSH2 0x1EEC JUMP JUMPDEST PUSH2 0x119D PUSH8 0x3EF288F0C4C9E22B PUSH1 0xC0 SHL PUSH2 0x1EEC JUMP JUMPDEST DUP6 DUP6 PUSH1 0x1 PUSH1 0x0 DUP10 PUSH20 0xFFFFFFFFFFFFFFFFFFFFFFFFFFFFFFFFFFFFFFFF AND PUSH20 0xFFFFFFFFFFFFFFFFFFFFFFFFFFFFFFFFFFFFFFFF AND DUP2 MSTORE PUSH1 0x20 ADD SWAP1 DUP2 MSTORE PUSH1 0x20 ADD PUSH1 0x0 KECCAK256 PUSH1 0x0 DUP9 DUP2 MSTORE PUSH1 0x20 ADD SWAP1 DUP2 MSTORE PUSH1 0x20 ADD PUSH1 0x0 KECCAK256 PUSH1 0x0 ADD SLOAD PUSH1 0x40 MLOAD PUSH32 0x817CE9F100000000000000000000000000000000000000000000000000000000 DUP2 MSTORE PUSH1 0x4 ADD PUSH2 0x1228 SWAP4 SWAP3 SWAP2 SWAP1 PUSH2 0x2247 JUMP JUMPDEST PUSH1 0x40 MLOAD DUP1 SWAP2 SUB SWAP1 REVERT JUMPDEST PUSH2 0x1245 PUSH8 0x9059489255FC26AC PUSH1 0xC0 SHL PUSH2 0x1EEC JUMP JUMPDEST PUSH2 0x1259 PUSH8 0x9784CF4B51359A3C PUSH1 0xC0 SHL PUSH2 0x1EEC JUMP JUMPDEST CALLVALUE PUSH1 0x2 PUSH1 0x0 DUP4 PUSH1 0x20 ADD MLOAD PUSH20 0xFFFFFFFFFFFFFFFFFFFFFFFFFFFFFFFFFFFFFFFF AND PUSH20 0xFFFFFFFFFFFFFFFFFFFFFFFFFFFFFFFFFFFFFFFF AND DUP2 MSTORE PUSH1 0x20 ADD SWAP1 DUP2 MSTORE PUSH1 0x20 ADD PUSH1 0x0 KECCAK256 SLOAD PUSH2 0x12A8 SWAP2 SWAP1 PUSH2 0x22AD JUMP JUMPDEST PUSH1 0x2 PUSH1 0x0 DUP4 PUSH1 0x20 ADD MLOAD PUSH20 0xFFFFFFFFFFFFFFFFFFFFFFFFFFFFFFFFFFFFFFFF AND PUSH20 0xFFFFFFFFFFFFFFFFFFFFFFFFFFFFFFFFFFFFFFFF AND DUP2 MSTORE PUSH1 0x20 ADD SWAP1 DUP2 MSTORE PUSH1 0x20 ADD PUSH1 0x0 KECCAK256 DUP2 SWAP1 SSTORE POP PUSH2 0x1303 PUSH8 0x76BECBB3EC2B6460 PUSH1 0xC0 SHL PUSH2 0x1EEC JUMP JUMPDEST PUSH1 0x1 PUSH1 0x0 DUP8 PUSH20 0xFFFFFFFFFFFFFFFFFFFFFFFFFFFFFFFFFFFFFFFF AND PUSH20 0xFFFFFFFFFFFFFFFFFFFFFFFFFFFFFFFFFFFFFFFF AND DUP2 MSTORE PUSH1 0x20 ADD SWAP1 DUP2 MSTORE PUSH1 0x20 ADD PUSH1 0x0 KECCAK256 PUSH1 0x0 DUP7 DUP2 MSTORE PUSH1 0x20 ADD SWAP1 DUP2 MSTORE PUSH1 0x20 ADD PUSH1 0x0 KECCAK256 PUSH1 0x0 DUP1 DUP3 ADD PUSH1 0x0 SWAP1 SSTORE PUSH1 0x1 DUP3 ADD PUSH1 0x0 PUSH2 0x100 EXP DUP2 SLOAD SWAP1 PUSH20 0xFFFFFFFFFFFFFFFFFFFFFFFFFFFFFFFFFFFFFFFF MUL NOT AND SWAP1 SSTORE POP POP PUSH2 0x1399 PUSH8 0x1BF6548B527B6A3C PUSH1 0xC0 SHL PUSH2 0x1EEC JUMP JUMPDEST PUSH2 0x13AD PUSH8 0x8B439B3C779EE406 PUSH1 0xC0 SHL PUSH2 0x1EEC JUMP JUMPDEST DUP6 PUSH20 0xFFFFFFFFFFFFFFFFFFFFFFFFFFFFFFFFFFFFFFFF AND PUSH4 0x42842E0E DUP3 PUSH1 0x20 ADD MLOAD CALLER DUP9 PUSH1 0x40 MLOAD DUP5 PUSH4 0xFFFFFFFF AND PUSH1 0xE0 SHL DUP2 MSTORE PUSH1 0x4 ADD PUSH2 0x13EE SWAP4 SWAP3 SWAP2 SWAP1 PUSH2 0x2303 JUMP JUMPDEST PUSH1 0x0 PUSH1 0x40 MLOAD DUP1 DUP4 SUB DUP2 PUSH1 0x0 DUP8 DUP1 EXTCODESIZE ISZERO DUP1 ISZERO PUSH2 0x1408 JUMPI PUSH1 0x0 DUP1 REVERT JUMPDEST POP GAS CALL ISZERO DUP1 ISZERO PUSH2 0x141C JUMPI RETURNDATASIZE PUSH1 0x0 DUP1 RETURNDATACOPY RETURNDATASIZE PUSH1 0x0 REVERT JUMPDEST POP POP POP POP PUSH2 0x1434 PUSH8 0xF37BE70A896CBD26 PUSH1 0xC0 SHL PUSH2 0x1EEC JUMP JUMPDEST PUSH2 0x1448 PUSH8 0xDEBA0FC0AA99D669 PUSH1 0xC0 SHL PUSH2 0x1EEC JUMP JUMPDEST DUP5 DUP7 PUSH20 0xFFFFFFFFFFFFFFFFFFFFFFFFFFFFFFFFFFFFFFFF AND CALLER PUSH20 0xFFFFFFFFFFFFFFFFFFFFFFFFFFFFFFFFFFFFFFFF AND PUSH32 0x263223B1DD81E51054A4E6F791D45A4A1DDB4AADCD93A2DFD892615C3FDAC187 DUP5 PUSH1 0x0 ADD MLOAD PUSH1 0x40 MLOAD PUSH2 0x14AA SWAP2 SWAP1 PUSH2 0x1FC8 JUMP JUMPDEST PUSH1 0x40 MLOAD DUP1 SWAP2 SUB SWAP1 LOG4 POP POP POP POP PUSH1 0x1 PUSH1 0x0 DUP2 SWAP1 SSTORE POP POP POP JUMP JUMPDEST PUSH2 0x14D6 PUSH8 0xC2017557E2A48E06 PUSH1 0xC0 SHL PUSH2 0x1EEC JUMP JUMPDEST DUP2 DUP2 CALLER PUSH2 0x14ED PUSH8 0x657F0923B55E375B PUSH1 0xC0 SHL PUSH2 0x1EEC JUMP JUMPDEST PUSH2 0x1501 PUSH8 0xB0FB65A35C0261F2 PUSH1 0xC0 SHL PUSH2 0x1EEC JUMP JUMPDEST PUSH2 0x1515 PUSH8 0x526D59AF46322CB PUSH1 0xC0 SHL PUSH2 0x1EEC JUMP JUMPDEST PUSH1 0x0 DUP4 SWAP1 POP PUSH2 0x152E PUSH8 0x610DFC9EB53A6BC3 PUSH1 0xC0 SHL PUSH2 0x1EEC JUMP JUMPDEST PUSH2 0x1542 PUSH8 0x3CB83BBFCECFBA66 PUSH1 0xC0 SHL PUSH2 0x1EEC JUMP JUMPDEST PUSH1 0x0 DUP2 PUSH20 0xFFFFFFFFFFFFFFFFFFFFFFFFFFFFFFFFFFFFFFFF AND PUSH4 0x6352211E DUP6 PUSH1 0x40 MLOAD DUP3 PUSH4 0xFFFFFFFF AND PUSH1 0xE0 SHL DUP2 MSTORE PUSH1 0x4 ADD PUSH2 0x157D SWAP2 SWAP1 PUSH2 0x1FC8 JUMP JUMPDEST PUSH1 0x20 PUSH1 0x40 MLOAD DUP1 DUP4 SUB DUP2 DUP7 DUP1 EXTCODESIZE ISZERO DUP1 ISZERO PUSH2 0x1595 JUMPI PUSH1 0x0 DUP1 REVERT JUMPDEST POP GAS STATICCALL ISZERO DUP1 ISZERO PUSH2 0x15A9 JUMPI RETURNDATASIZE PUSH1 0x0 DUP1 RETURNDATACOPY RETURNDATASIZE PUSH1 0x0 REVERT JUMPDEST POP POP POP POP PUSH1 0x40 MLOAD RETURNDATASIZE PUSH1 0x1F NOT PUSH1 0x1F DUP3 ADD AND DUP3 ADD DUP1 PUSH1 0x40 MSTORE POP DUP2 ADD SWAP1 PUSH2 0x15CD SWAP2 SWAP1 PUSH2 0x2157 JUMP JUMPDEST SWAP1 POP PUSH2 0x15E3 PUSH8 0x842336C7815A03CD PUSH1 0xC0 SHL PUSH2 0x1EEC JUMP JUMPDEST PUSH2 0x15F7 PUSH8 0x81332978E77D2CBB PUSH1 0xC0 SHL PUSH2 0x1EEC JUMP JUMPDEST DUP1 PUSH20 0xFFFFFFFFFFFFFFFFFFFFFFFFFFFFFFFFFFFFFFFF AND DUP4 PUSH20 0xFFFFFFFFFFFFFFFFFFFFFFFFFFFFFFFFFFFFFFFF AND EQ PUSH2 0x1684 JUMPI PUSH2 0x163E PUSH8 0xECB87AD81DA6E391 PUSH1 0xC0 SHL PUSH2 0x1EEC JUMP JUMPDEST PUSH2 0x1652 PUSH8 0xCFC8659C1C709362 PUSH1 0xC0 SHL PUSH2 0x1EEC JUMP JUMPDEST PUSH1 0x40 MLOAD PUSH32 0x94953B6000000000000000000000000000000000000000000000000000000000 DUP2 MSTORE PUSH1 0x4 ADD PUSH1 0x40 MLOAD DUP1 SWAP2 SUB SWAP1 REVERT JUMPDEST PUSH2 0x1698 PUSH8 0xE2B1C8CB1CE72F70 PUSH1 0xC0 SHL PUSH2 0x1EEC JUMP JUMPDEST PUSH2 0x16AC PUSH8 0x772DB97C97204096 PUSH1 0xC0 SHL PUSH2 0x1EEC JUMP JUMPDEST PUSH2 0x16C0 PUSH8 0xB728B5B30548D5DD PUSH1 0xC0 SHL PUSH2 0x1EEC JUMP JUMPDEST PUSH2 0x16D4 PUSH8 0xD8E6457127558C01 PUSH1 0xC0 SHL PUSH2 0x1EEC JUMP JUMPDEST DUP7 DUP7 PUSH2 0x16EA PUSH8 0x724373CFB0476FAF PUSH1 0xC0 SHL PUSH2 0x1EEC JUMP JUMPDEST PUSH2 0x16FE PUSH8 0x7CA42944A238C753 PUSH1 0xC0 SHL PUSH2 0x1EEC JUMP JUMPDEST PUSH2 0x1712 PUSH8 0x19C0806BF3F1BA79 PUSH1 0xC0 SHL PUSH2 0x1EEC JUMP JUMPDEST PUSH1 0x0 PUSH1 0x1 PUSH1 0x0 DUP5 PUSH20 0xFFFFFFFFFFFFFFFFFFFFFFFFFFFFFFFFFFFFFFFF AND PUSH20 0xFFFFFFFFFFFFFFFFFFFFFFFFFFFFFFFFFFFFFFFF AND DUP2 MSTORE PUSH1 0x20 ADD SWAP1 DUP2 MSTORE PUSH1 0x20 ADD PUSH1 0x0 KECCAK256 PUSH1 0x0 DUP4 DUP2 MSTORE PUSH1 0x20 ADD SWAP1 DUP2 MSTORE PUSH1 0x20 ADD PUSH1 0x0 KECCAK256 PUSH1 0x40 MLOAD DUP1 PUSH1 0x40 ADD PUSH1 0x40 MSTORE SWAP1 DUP2 PUSH1 0x0 DUP3 ADD SLOAD DUP2 MSTORE PUSH1 0x20 ADD PUSH1 0x1 DUP3 ADD PUSH1 0x0 SWAP1 SLOAD SWAP1 PUSH2 0x100 EXP SWAP1 DIV PUSH20 0xFFFFFFFFFFFFFFFFFFFFFFFFFFFFFFFFFFFFFFFF AND PUSH20 0xFFFFFFFFFFFFFFFFFFFFFFFFFFFFFFFFFFFFFFFF AND PUSH20 0xFFFFFFFFFFFFFFFFFFFFFFFFFFFFFFFFFFFFFFFF AND DUP2 MSTORE POP POP SWAP1 POP PUSH2 0x17E5 PUSH8 0x1A84999EBE1B88C9 PUSH1 0xC0 SHL PUSH2 0x1EEC JUMP JUMPDEST PUSH2 0x17F9 PUSH8 0x959C30F3AD9DF084 PUSH1 0xC0 SHL PUSH2 0x1EEC JUMP JUMPDEST PUSH1 0x0 DUP2 PUSH1 0x0 ADD MLOAD GT PUSH2 0x186C JUMPI PUSH2 0x1819 PUSH8 0x8E75D0811B94193E PUSH1 0xC0 SHL PUSH2 0x1EEC JUMP JUMPDEST PUSH2 0x182D PUSH8 0x59CE1E4FE55C9BAA PUSH1 0xC0 SHL PUSH2 0x1EEC JUMP JUMPDEST DUP3 DUP3 PUSH1 0x40 MLOAD PUSH32 0x6D350F2200000000000000000000000000000000000000000000000000000000 DUP2 MSTORE PUSH1 0x4 ADD PUSH2 0x1863 SWAP3 SWAP2 SWAP1 PUSH2 0x2119 JUMP JUMPDEST PUSH1 0x40 MLOAD DUP1 SWAP2 SUB SWAP1 REVERT JUMPDEST PUSH2 0x1880 PUSH8 0x94A437209346DA33 PUSH1 0xC0 SHL PUSH2 0x1EEC JUMP JUMPDEST PUSH2 0x1894 PUSH8 0x9AED328E0E2043E9 PUSH1 0xC0 SHL PUSH2 0x1EEC JUMP JUMPDEST PUSH2 0x18A8 PUSH8 0xC96B76B7246590D3 PUSH1 0xC0 SHL PUSH2 0x1EEC JUMP JUMPDEST PUSH2 0x18BC PUSH8 0xD2C6832805DD350C PUSH1 0xC0 SHL PUSH2 0x1EEC JUMP JUMPDEST PUSH2 0x18D0 PUSH8 0x94B6E306CBD486CF PUSH1 0xC0 SHL PUSH2 0x1EEC JUMP JUMPDEST PUSH1 0x1 PUSH1 0x0 DUP12 PUSH20 0xFFFFFFFFFFFFFFFFFFFFFFFFFFFFFFFFFFFFFFFF AND PUSH20 0xFFFFFFFFFFFFFFFFFFFFFFFFFFFFFFFFFFFFFFFF AND DUP2 MSTORE PUSH1 0x20 ADD SWAP1 DUP2 MSTORE PUSH1 0x20 ADD PUSH1 0x0 KECCAK256 PUSH1 0x0 DUP11 DUP2 MSTORE PUSH1 0x20 ADD SWAP1 DUP2 MSTORE PUSH1 0x20 ADD PUSH1 0x0 KECCAK256 PUSH1 0x0 DUP1 DUP3 ADD PUSH1 0x0 SWAP1 SSTORE PUSH1 0x1 DUP3 ADD PUSH1 0x0 PUSH2 0x100 EXP DUP2 SLOAD SWAP1 PUSH20 0xFFFFFFFFFFFFFFFFFFFFFFFFFFFFFFFFFFFFFFFF MUL NOT AND SWAP1 SSTORE POP POP PUSH2 0x1966 PUSH8 0x146AE21F8E82050F PUSH1 0xC0 SHL PUSH2 0x1EEC JUMP JUMPDEST PUSH2 0x197A PUSH8 0x222FFC16F41ADB24 PUSH1 0xC0 SHL PUSH2 0x1EEC JUMP JUMPDEST DUP10 PUSH20 0xFFFFFFFFFFFFFFFFFFFFFFFFFFFFFFFFFFFFFFFF AND CALLER PUSH20 0xFFFFFFFFFFFFFFFFFFFFFFFFFFFFFFFFFFFFFFFF AND PUSH32 0x510D5293F19C115316140AC4077BF6B81369643E37D07BCEDF1E8E223217B81C DUP12 PUSH1 0x40 MLOAD PUSH2 0x19D7 SWAP2 SWAP1 PUSH2 0x1FC8 JUMP JUMPDEST PUSH1 0x40 MLOAD DUP1 SWAP2 SUB SWAP1 LOG3 POP POP POP POP POP POP POP POP POP POP JUMP JUMPDEST PUSH2 0x19FF PUSH8 0x587F221ADC09C2E PUSH1 0xC0 SHL PUSH2 0x1EEC JUMP JUMPDEST DUP3 DUP3 CALLER PUSH2 0x1A16 PUSH8 0x657F0923B55E375B PUSH1 0xC0 SHL PUSH2 0x1EEC JUMP JUMPDEST PUSH2 0x1A2A PUSH8 0xB0FB65A35C0261F2 PUSH1 0xC0 SHL PUSH2 0x1EEC JUMP JUMPDEST PUSH2 0x1A3E PUSH8 0x526D59AF46322CB PUSH1 0xC0 SHL PUSH2 0x1EEC JUMP JUMPDEST PUSH1 0x0 DUP4 SWAP1 POP PUSH2 0x1A57 PUSH8 0x610DFC9EB53A6BC3 PUSH1 0xC0 SHL PUSH2 0x1EEC JUMP JUMPDEST PUSH2 0x1A6B PUSH8 0x3CB83BBFCECFBA66 PUSH1 0xC0 SHL PUSH2 0x1EEC JUMP JUMPDEST PUSH1 0x0 DUP2 PUSH20 0xFFFFFFFFFFFFFFFFFFFFFFFFFFFFFFFFFFFFFFFF AND PUSH4 0x6352211E DUP6 PUSH1 0x40 MLOAD DUP3 PUSH4 0xFFFFFFFF AND PUSH1 0xE0 SHL DUP2 MSTORE PUSH1 0x4 ADD PUSH2 0x1AA6 SWAP2 SWAP1 PUSH2 0x1FC8 JUMP JUMPDEST PUSH1 0x20 PUSH1 0x40 MLOAD DUP1 DUP4 SUB DUP2 DUP7 DUP1 EXTCODESIZE ISZERO DUP1 ISZERO PUSH2 0x1ABE JUMPI PUSH1 0x0 DUP1 REVERT JUMPDEST POP GAS STATICCALL ISZERO DUP1 ISZERO PUSH2 0x1AD2 JUMPI RETURNDATASIZE PUSH1 0x0 DUP1 RETURNDATACOPY RETURNDATASIZE PUSH1 0x0 REVERT JUMPDEST POP POP POP POP PUSH1 0x40 MLOAD RETURNDATASIZE PUSH1 0x1F NOT PUSH1 0x1F DUP3 ADD AND DUP3 ADD DUP1 PUSH1 0x40 MSTORE POP DUP2 ADD SWAP1 PUSH2 0x1AF6 SWAP2 SWAP1 PUSH2 0x2157 JUMP JUMPDEST SWAP1 POP PUSH2 0x1B0C PUSH8 0x842336C7815A03CD PUSH1 0xC0 SHL PUSH2 0x1EEC JUMP JUMPDEST PUSH2 0x1B20 PUSH8 0x81332978E77D2CBB PUSH1 0xC0 SHL PUSH2 0x1EEC JUMP JUMPDEST DUP1 PUSH20 0xFFFFFFFFFFFFFFFFFFFFFFFFFFFFFFFFFFFFFFFF AND DUP4 PUSH20 0xFFFFFFFFFFFFFFFFFFFFFFFFFFFFFFFFFFFFFFFF AND EQ PUSH2 0x1BAD JUMPI PUSH2 0x1B67 PUSH8 0xECB87AD81DA6E391 PUSH1 0xC0 SHL PUSH2 0x1EEC JUMP JUMPDEST PUSH2 0x1B7B PUSH8 0xCFC8659C1C709362 PUSH1 0xC0 SHL PUSH2 0x1EEC JUMP JUMPDEST PUSH1 0x40 MLOAD PUSH32 0x94953B6000000000000000000000000000000000000000000000000000000000 DUP2 MSTORE PUSH1 0x4 ADD PUSH1 0x40 MLOAD DUP1 SWAP2 SUB SWAP1 REVERT JUMPDEST PUSH2 0x1BC1 PUSH8 0xE2B1C8CB1CE72F70 PUSH1 0xC0 SHL PUSH2 0x1EEC JUMP JUMPDEST PUSH2 0x1BD5 PUSH8 0x772DB97C97204096 PUSH1 0xC0 SHL PUSH2 0x1EEC JUMP JUMPDEST PUSH2 0x1BE9 PUSH8 0x6E2FA2966C622F12 PUSH1 0xC0 SHL PUSH2 0x1EEC JUMP JUMPDEST PUSH2 0x1BFD PUSH8 0x1138E2ACE66833D1 PUSH1 0xC0 SHL PUSH2 0x1EEC JUMP JUMPDEST DUP8 DUP8 PUSH2 0x1C13 PUSH8 0x724373CFB0476FAF PUSH1 0xC0 SHL PUSH2 0x1EEC JUMP JUMPDEST PUSH2 0x1C27 PUSH8 0x7CA42944A238C753 PUSH1 0xC0 SHL PUSH2 0x1EEC JUMP JUMPDEST PUSH2 0x1C3B PUSH8 0x19C0806BF3F1BA79 PUSH1 0xC0 SHL PUSH2 0x1EEC JUMP JUMPDEST PUSH1 0x0 PUSH1 0x1 PUSH1 0x0 DUP5 PUSH20 0xFFFFFFFFFFFFFFFFFFFFFFFFFFFFFFFFFFFFFFFF AND PUSH20 0xFFFFFFFFFFFFFFFFFFFFFFFFFFFFFFFFFFFFFFFF AND DUP2 MSTORE PUSH1 0x20 ADD SWAP1 DUP2 MSTORE PUSH1 0x20 ADD PUSH1 0x0 KECCAK256 PUSH1 0x0 DUP4 DUP2 MSTORE PUSH1 0x20 ADD SWAP1 DUP2 MSTORE PUSH1 0x20 ADD PUSH1 0x0 KECCAK256 PUSH1 0x40 MLOAD DUP1 PUSH1 0x40 ADD PUSH1 0x40 MSTORE SWAP1 DUP2 PUSH1 0x0 DUP3 ADD SLOAD DUP2 MSTORE PUSH1 0x20 ADD PUSH1 0x1 DUP3 ADD PUSH1 0x0 SWAP1 SLOAD SWAP1 PUSH2 0x100 EXP SWAP1 DIV PUSH20 0xFFFFFFFFFFFFFFFFFFFFFFFFFFFFFFFFFFFFFFFF AND PUSH20 0xFFFFFFFFFFFFFFFFFFFFFFFFFFFFFFFFFFFFFFFF AND PUSH20 0xFFFFFFFFFFFFFFFFFFFFFFFFFFFFFFFFFFFFFFFF AND DUP2 MSTORE POP POP SWAP1 POP PUSH2 0x1D0E PUSH8 0x1A84999EBE1B88C9 PUSH1 0xC0 SHL PUSH2 0x1EEC JUMP JUMPDEST PUSH2 0x1D22 PUSH8 0x959C30F3AD9DF084 PUSH1 0xC0 SHL PUSH2 0x1EEC JUMP JUMPDEST PUSH1 0x0 DUP2 PUSH1 0x0 ADD MLOAD GT PUSH2 0x1D95 JUMPI PUSH2 0x1D42 PUSH8 0x8E75D0811B94193E PUSH1 0xC0 SHL PUSH2 0x1EEC JUMP JUMPDEST PUSH2 0x1D56 PUSH8 0x59CE1E4FE55C9BAA PUSH1 0xC0 SHL PUSH2 0x1EEC JUMP JUMPDEST DUP3 DUP3 PUSH1 0x40 MLOAD PUSH32 0x6D350F2200000000000000000000000000000000000000000000000000000000 DUP2 MSTORE PUSH1 0x4 ADD PUSH2 0x1D8C SWAP3 SWAP2 SWAP1 PUSH2 0x2119 JUMP JUMPDEST PUSH1 0x40 MLOAD DUP1 SWAP2 SUB SWAP1 REVERT JUMPDEST PUSH2 0x1DA9 PUSH8 0x94A437209346DA33 PUSH1 0xC0 SHL PUSH2 0x1EEC JUMP JUMPDEST PUSH2 0x1DBD PUSH8 0x9AED328E0E2043E9 PUSH1 0xC0 SHL PUSH2 0x1EEC JUMP JUMPDEST PUSH2 0x1DD1 PUSH8 0x3B02D88E2E4705D0 PUSH1 0xC0 SHL PUSH2 0x1EEC JUMP JUMPDEST PUSH2 0x1DE5 PUSH8 0xFC2F0FE23BF33393 PUSH1 0xC0 SHL PUSH2 0x1EEC JUMP JUMPDEST PUSH2 0x1DF9 PUSH8 0x84D36FEE020D0CDB PUSH1 0xC0 SHL PUSH2 0x1EEC JUMP JUMPDEST DUP9 PUSH1 0x1 PUSH1 0x0 DUP14 PUSH20 0xFFFFFFFFFFFFFFFFFFFFFFFFFFFFFFFFFFFFFFFF AND PUSH20 0xFFFFFFFFFFFFFFFFFFFFFFFFFFFFFFFFFFFFFFFF AND DUP2 MSTORE PUSH1 0x20 ADD SWAP1 DUP2 MSTORE PUSH1 0x20 ADD PUSH1 0x0 KECCAK256 PUSH1 0x0 DUP13 DUP2 MSTORE PUSH1 0x20 ADD SWAP1 DUP2 MSTORE PUSH1 0x20 ADD PUSH1 0x0 KECCAK256 PUSH1 0x0 ADD DUP2 SWAP1 SSTORE POP PUSH2 0x1E65 PUSH8 0x647018EE2EDB42E6 PUSH1 0xC0 SHL PUSH2 0x1EEC JUMP JUMPDEST PUSH2 0x1E79 PUSH8 0x94E4F324B5E6950E PUSH1 0xC0 SHL PUSH2 0x1EEC JUMP JUMPDEST DUP10 DUP12 PUSH20 0xFFFFFFFFFFFFFFFFFFFFFFFFFFFFFFFFFFFFFFFF AND CALLER PUSH20 0xFFFFFFFFFFFFFFFFFFFFFFFFFFFFFFFFFFFFFFFF AND PUSH32 0xD8C9D4C3E24291376076C3D2C9F426D5CFAC54E1E229830C764F941426C070FA DUP13 PUSH1 0x40 MLOAD PUSH2 0x1ED7 SWAP2 SWAP1 PUSH2 0x1FC8 JUMP JUMPDEST PUSH1 0x40 MLOAD DUP1 SWAP2 SUB SWAP1 LOG4 POP POP POP POP POP POP POP POP POP POP POP JUMP JUMPDEST POP JUMP JUMPDEST PUSH1 0x40 MLOAD DUP1 PUSH1 0x40 ADD PUSH1 0x40 MSTORE DUP1 PUSH1 0x0 DUP2 MSTORE PUSH1 0x20 ADD PUSH1 0x0 PUSH20 0xFFFFFFFFFFFFFFFFFFFFFFFFFFFFFFFFFFFFFFFF AND DUP2 MSTORE POP SWAP1 JUMP JUMPDEST PUSH1 0x0 DUP1 REVERT JUMPDEST PUSH1 0x0 PUSH20 0xFFFFFFFFFFFFFFFFFFFFFFFFFFFFFFFFFFFFFFFF DUP3 AND SWAP1 POP SWAP2 SWAP1 POP JUMP JUMPDEST PUSH1 0x0 PUSH2 0x1F4F DUP3 PUSH2 0x1F24 JUMP JUMPDEST SWAP1 POP SWAP2 SWAP1 POP JUMP JUMPDEST PUSH2 0x1F5F DUP2 PUSH2 0x1F44 JUMP JUMPDEST DUP2 EQ PUSH2 0x1F6A JUMPI PUSH1 0x0 DUP1 REVERT JUMPDEST POP JUMP JUMPDEST PUSH1 0x0 DUP2 CALLDATALOAD SWAP1 POP PUSH2 0x1F7C DUP2 PUSH2 0x1F56 JUMP JUMPDEST SWAP3 SWAP2 POP POP JUMP JUMPDEST PUSH1 0x0 PUSH1 0x20 DUP3 DUP5 SUB SLT ISZERO PUSH2 0x1F98 JUMPI PUSH2 0x1F97 PUSH2 0x1F1F JUMP JUMPDEST JUMPDEST PUSH1 0x0 PUSH2 0x1FA6 DUP5 DUP3 DUP6 ADD PUSH2 0x1F6D JUMP JUMPDEST SWAP2 POP POP SWAP3 SWAP2 POP POP JUMP JUMPDEST PUSH1 0x0 DUP2 SWAP1 POP SWAP2 SWAP1 POP JUMP JUMPDEST PUSH2 0x1FC2 DUP2 PUSH2 0x1FAF JUMP JUMPDEST DUP3 MSTORE POP POP JUMP JUMPDEST PUSH1 0x0 PUSH1 0x20 DUP3 ADD SWAP1 POP PUSH2 0x1FDD PUSH1 0x0 DUP4 ADD DUP5 PUSH2 0x1FB9 JUMP JUMPDEST SWAP3 SWAP2 POP POP JUMP JUMPDEST PUSH2 0x1FEC DUP2 PUSH2 0x1FAF JUMP JUMPDEST DUP2 EQ PUSH2 0x1FF7 JUMPI PUSH1 0x0 DUP1 REVERT JUMPDEST POP JUMP JUMPDEST PUSH1 0x0 DUP2 CALLDATALOAD SWAP1 POP PUSH2 0x2009 DUP2 PUSH2 0x1FE3 JUMP JUMPDEST SWAP3 SWAP2 POP POP JUMP JUMPDEST PUSH1 0x0 DUP1 PUSH1 0x40 DUP4 DUP6 SUB SLT ISZERO PUSH2 0x2026 JUMPI PUSH2 0x2025 PUSH2 0x1F1F JUMP JUMPDEST JUMPDEST PUSH1 0x0 PUSH2 0x2034 DUP6 DUP3 DUP7 ADD PUSH2 0x1F6D JUMP JUMPDEST SWAP3 POP POP PUSH1 0x20 PUSH2 0x2045 DUP6 DUP3 DUP7 ADD PUSH2 0x1FFA JUMP JUMPDEST SWAP2 POP POP SWAP3 POP SWAP3 SWAP1 POP JUMP JUMPDEST PUSH2 0x2058 DUP2 PUSH2 0x1FAF JUMP JUMPDEST DUP3 MSTORE POP POP JUMP JUMPDEST PUSH2 0x2067 DUP2 PUSH2 0x1F44 JUMP JUMPDEST DUP3 MSTORE POP POP JUMP JUMPDEST PUSH1 0x40 DUP3 ADD PUSH1 0x0 DUP3 ADD MLOAD PUSH2 0x2083 PUSH1 0x0 DUP6 ADD DUP3 PUSH2 0x204F JUMP JUMPDEST POP PUSH1 0x20 DUP3 ADD MLOAD PUSH2 0x2096 PUSH1 0x20 DUP6 ADD DUP3 PUSH2 0x205E JUMP JUMPDEST POP POP POP POP JUMP JUMPDEST PUSH1 0x0 PUSH1 0x40 DUP3 ADD SWAP1 POP PUSH2 0x20B1 PUSH1 0x0 DUP4 ADD DUP5 PUSH2 0x206D JUMP JUMPDEST SWAP3 SWAP2 POP POP JUMP JUMPDEST PUSH1 0x0 DUP1 PUSH1 0x0 PUSH1 0x60 DUP5 DUP7 SUB SLT ISZERO PUSH2 0x20D0 JUMPI PUSH2 0x20CF PUSH2 0x1F1F JUMP JUMPDEST JUMPDEST PUSH1 0x0 PUSH2 0x20DE DUP7 DUP3 DUP8 ADD PUSH2 0x1F6D JUMP JUMPDEST SWAP4 POP POP PUSH1 0x20 PUSH2 0x20EF DUP7 DUP3 DUP8 ADD PUSH2 0x1FFA JUMP JUMPDEST SWAP3 POP POP PUSH1 0x40 PUSH2 0x2100 DUP7 DUP3 DUP8 ADD PUSH2 0x1FFA JUMP JUMPDEST SWAP2 POP POP SWAP3 POP SWAP3 POP SWAP3 JUMP JUMPDEST PUSH2 0x2113 DUP2 PUSH2 0x1F44 JUMP JUMPDEST DUP3 MSTORE POP POP JUMP JUMPDEST PUSH1 0x0 PUSH1 0x40 DUP3 ADD SWAP1 POP PUSH2 0x212E PUSH1 0x0 DUP4 ADD DUP6 PUSH2 0x210A JUMP JUMPDEST PUSH2 0x213B PUSH1 0x20 DUP4 ADD DUP5 PUSH2 0x1FB9 JUMP JUMPDEST SWAP4 SWAP3 POP POP POP JUMP JUMPDEST PUSH1 0x0 DUP2 MLOAD SWAP1 POP PUSH2 0x2151 DUP2 PUSH2 0x1F56 JUMP JUMPDEST SWAP3 SWAP2 POP POP JUMP JUMPDEST PUSH1 0x0 PUSH1 0x20 DUP3 DUP5 SUB SLT ISZERO PUSH2 0x216D JUMPI PUSH2 0x216C PUSH2 0x1F1F JUMP JUMPDEST JUMPDEST PUSH1 0x0 PUSH2 0x217B DUP5 DUP3 DUP6 ADD PUSH2 0x2142 JUMP JUMPDEST SWAP2 POP POP SWAP3 SWAP2 POP POP JUMP JUMPDEST PUSH1 0x0 DUP3 DUP3 MSTORE PUSH1 0x20 DUP3 ADD SWAP1 POP SWAP3 SWAP2 POP POP JUMP JUMPDEST PUSH32 0x5265656E7472616E637947756172643A207265656E7472616E742063616C6C00 PUSH1 0x0 DUP3 ADD MSTORE POP JUMP JUMPDEST PUSH1 0x0 PUSH2 0x21CB PUSH1 0x1F DUP4 PUSH2 0x2184 JUMP JUMPDEST SWAP2 POP PUSH2 0x21D6 DUP3 PUSH2 0x2195 JUMP JUMPDEST PUSH1 0x20 DUP3 ADD SWAP1 POP SWAP2 SWAP1 POP JUMP JUMPDEST PUSH1 0x0 PUSH1 0x20 DUP3 ADD SWAP1 POP DUP2 DUP2 SUB PUSH1 0x0 DUP4 ADD MSTORE PUSH2 0x21FA DUP2 PUSH2 0x21BE JUMP JUMPDEST SWAP1 POP SWAP2 SWAP1 POP JUMP JUMPDEST PUSH1 0x0 DUP2 SWAP1 POP SWAP3 SWAP2 POP POP JUMP JUMPDEST POP JUMP JUMPDEST PUSH1 0x0 PUSH2 0x221C PUSH1 0x0 DUP4 PUSH2 0x2201 JUMP JUMPDEST SWAP2 POP PUSH2 0x2227 DUP3 PUSH2 0x220C JUMP JUMPDEST PUSH1 0x0 DUP3 ADD SWAP1 POP SWAP2 SWAP1 POP JUMP JUMPDEST PUSH1 0x0 PUSH2 0x223D DUP3 PUSH2 0x220F JUMP JUMPDEST SWAP2 POP DUP2 SWAP1 POP SWAP2 SWAP1 POP JUMP JUMPDEST PUSH1 0x0 PUSH1 0x60 DUP3 ADD SWAP1 POP PUSH2 0x225C PUSH1 0x0 DUP4 ADD DUP7 PUSH2 0x210A JUMP JUMPDEST PUSH2 0x2269 PUSH1 0x20 DUP4 ADD DUP6 PUSH2 0x1FB9 JUMP JUMPDEST PUSH2 0x2276 PUSH1 0x40 DUP4 ADD DUP5 PUSH2 0x1FB9 JUMP JUMPDEST SWAP5 SWAP4 POP POP POP POP JUMP JUMPDEST PUSH32 0x4E487B7100000000000000000000000000000000000000000000000000000000 PUSH1 0x0 MSTORE PUSH1 0x11 PUSH1 0x4 MSTORE PUSH1 0x24 PUSH1 0x0 REVERT JUMPDEST PUSH1 0x0 PUSH2 0x22B8 DUP3 PUSH2 0x1FAF JUMP JUMPDEST SWAP2 POP PUSH2 0x22C3 DUP4 PUSH2 0x1FAF JUMP JUMPDEST SWAP3 POP DUP3 PUSH32 0xFFFFFFFFFFFFFFFFFFFFFFFFFFFFFFFFFFFFFFFFFFFFFFFFFFFFFFFFFFFFFFFF SUB DUP3 GT ISZERO PUSH2 0x22F8 JUMPI PUSH2 0x22F7 PUSH2 0x227E JUMP JUMPDEST JUMPDEST DUP3 DUP3 ADD SWAP1 POP SWAP3 SWAP2 POP POP JUMP JUMPDEST PUSH1 0x0 PUSH1 0x60 DUP3 ADD SWAP1 POP PUSH2 0x2318 PUSH1 0x0 DUP4 ADD DUP7 PUSH2 0x210A JUMP JUMPDEST PUSH2 0x2325 PUSH1 0x20 DUP4 ADD DUP6 PUSH2 0x210A JUMP JUMPDEST PUSH2 0x2332 PUSH1 0x40 DUP4 ADD DUP5 PUSH2 0x1FB9 JUMP JUMPDEST SWAP5 SWAP4 POP POP POP POP JUMP INVALID LOG2 PUSH5 0x6970667358 0x22 SLT KECCAK256 RETURNDATACOPY CALLDATACOPY SAR PUSH23 0x958FD7C79CBEFA4EB346089FFB191215C748D657326D7A 0xE6 SWAP6 BYTE COINBASE AND PUSH5 0x736F6C6343 STOP ADDMOD ADDMOD STOP CALLER "},"gasEstimates":{"creation":{"codeDepositCost":"1814400","executionCost":"24026","totalCost":"1838426"},"external":{"buyItem(address,uint256)":"infinite","cancelListing(address,uint256)":"infinite","getListing(address,uint256)":"infinite","getProceeds(address)":"infinite","listItem(address,uint256,uint256)":"infinite","updateListing(address,uint256,uint256)":"infinite","withdrawProceeds()":"infinite"},"internal":{"c_7fb06a1d(bytes8)":"11","c_false7fb06a1d(bytes8)":"infinite","c_true7fb06a1d(bytes8)":"infinite"}},"methodIdentifiers":{"buyItem(address,uint256)":"9f37092a","cancelListing(address,uint256)":"b2ddee06","getListing(address,uint256)":"88700d1c","getProceeds(address)":"30cfeda9","listItem(address,uint256,uint256)":"89bfd38f","updateListing(address,uint256,uint256)":"f772adf1","withdrawProceeds()":"9038e693"}},"storageLayout":{"storage":[{"astId":10,"contract":"contracts/NftMarketplace.sol:NftMarketplace","label":"_status","offset":0,"slot":"0","type":"t_uint256"},{"astId":2127,"contract":"contracts/NftMarketplace.sol:NftMarketplace","label":"s_listings","offset":0,"slot":"1","type":"t_mapping(t_address,t_mapping(t_uint256,t_struct(Listing)1883_storage))"},{"astId":2131,"contract":"contracts/NftMarketplace.sol:NftMarketplace","label":"s_proceeds","offset":0,"slot":"2","type":"t_mapping(t_address,t_uint256)"}],"types":{"t_address":{"encoding":"inplace","label":"address","numberOfBytes":"20"},"t_mapping(t_address,t_mapping(t_uint256,t_struct(Listing)1883_storage))":{"encoding":"mapping","key":"t_address","label":"mapping(address => mapping(uint256 => struct NftMarketplace.Listing))","numberOfBytes":"32","value":"t_mapping(t_uint256,t_struct(Listing)1883_storage)"},"t_mapping(t_address,t_uint256)":{"encoding":"mapping","key":"t_address","label":"mapping(address => uint256)","numberOfBytes":"32","value":"t_uint256"},"t_mapping(t_uint256,t_struct(Listing)1883_storage)":{"encoding":"mapping","key":"t_uint256","label":"mapping(uint256 => struct NftMarketplace.Listing)","numberOfBytes":"32","value":"t_struct(Listing)1883_storage"},"t_struct(Listing)1883_storage":{"encoding":"inplace","label":"struct NftMarketplace.Listing","members":[{"astId":1880,"contract":"contracts/NftMarketplace.sol:NftMarketplace","label":"price","offset":0,"slot":"0","type":"t_uint256"},{"astId":1882,"contract":"contracts/NftMarketplace.sol:NftMarketplace","label":"seller","offset":0,"slot":"1","type":"t_address"}],"numberOfBytes":"64"},"t_uint256":{"encoding":"inplace","label":"uint256","numberOfBytes":"32"}}},"userdoc":{"kind":"user","methods":{},"version":1}}}}