{
  "_format": "hh-sol-artifact-1",
  "contractName": "BasicNft",
  "sourceName": "contracts/test/BasicNft.sol",
  "abi": [
    {
      "inputs": [],
      "stateMutability": "nonpayable",
      "type": "constructor"
    },
    {
      "anonymous": false,
      "inputs": [
        {
          "indexed": true,
          "internalType": "address",
          "name": "owner",
          "type": "address"
        },
        {
          "indexed": true,
          "internalType": "address",
          "name": "approved",
          "type": "address"
        },
        {
          "indexed": true,
          "internalType": "uint256",
          "name": "tokenId",
          "type": "uint256"
        }
      ],
      "name": "Approval",
      "type": "event"
    },
    {
      "anonymous": false,
      "inputs": [
        {
          "indexed": true,
          "internalType": "address",
          "name": "owner",
          "type": "address"
        },
        {
          "indexed": true,
          "internalType": "address",
          "name": "operator",
          "type": "address"
        },
        {
          "indexed": false,
          "internalType": "bool",
          "name": "approved",
          "type": "bool"
        }
      ],
      "name": "ApprovalForAll",
      "type": "event"
    },
    {
      "anonymous": false,
      "inputs": [
        {
          "indexed": true,
          "internalType": "uint256",
          "name": "tokenId",
          "type": "uint256"
        }
      ],
      "name": "DogMinted",
      "type": "event"
    },
    {
      "anonymous": false,
      "inputs": [
        {
          "indexed": true,
          "internalType": "address",
          "name": "from",
          "type": "address"
        },
        {
          "indexed": true,
          "internalType": "address",
          "name": "to",
          "type": "address"
        },
        {
          "indexed": true,
          "internalType": "uint256",
          "name": "tokenId",
          "type": "uint256"
        }
      ],
      "name": "Transfer",
      "type": "event"
    },
    {
      "inputs": [],
      "name": "TOKEN_URI",
      "outputs": [
        {
          "internalType": "string",
          "name": "",
          "type": "string"
        }
      ],
      "stateMutability": "view",
      "type": "function"
    },
    {
      "inputs": [
        {
          "internalType": "address",
          "name": "to",
          "type": "address"
        },
        {
          "internalType": "uint256",
          "name": "tokenId",
          "type": "uint256"
        }
      ],
      "name": "approve",
      "outputs": [],
      "stateMutability": "nonpayable",
      "type": "function"
    },
    {
      "inputs": [
        {
          "internalType": "address",
          "name": "owner",
          "type": "address"
        }
      ],
      "name": "balanceOf",
      "outputs": [
        {
          "internalType": "uint256",
          "name": "",
          "type": "uint256"
        }
      ],
      "stateMutability": "view",
      "type": "function"
    },
    {
      "inputs": [
        {
          "internalType": "uint256",
          "name": "tokenId",
          "type": "uint256"
        }
      ],
      "name": "getApproved",
      "outputs": [
        {
          "internalType": "address",
          "name": "",
          "type": "address"
        }
      ],
      "stateMutability": "view",
      "type": "function"
    },
    {
      "inputs": [],
      "name": "getTokenCounter",
      "outputs": [
        {
          "internalType": "uint256",
          "name": "",
          "type": "uint256"
        }
      ],
      "stateMutability": "view",
      "type": "function"
    },
    {
      "inputs": [
        {
          "internalType": "address",
          "name": "owner",
          "type": "address"
        },
        {
          "internalType": "address",
          "name": "operator",
          "type": "address"
        }
      ],
      "name": "isApprovedForAll",
      "outputs": [
        {
          "internalType": "bool",
          "name": "",
          "type": "bool"
        }
      ],
      "stateMutability": "view",
      "type": "function"
    },
    {
      "inputs": [],
      "name": "mintNft",
      "outputs": [],
      "stateMutability": "nonpayable",
      "type": "function"
    },
    {
      "inputs": [],
      "name": "name",
      "outputs": [
        {
          "internalType": "string",
          "name": "",
          "type": "string"
        }
      ],
      "stateMutability": "view",
      "type": "function"
    },
    {
      "inputs": [
        {
          "internalType": "uint256",
          "name": "tokenId",
          "type": "uint256"
        }
      ],
      "name": "ownerOf",
      "outputs": [
        {
          "internalType": "address",
          "name": "",
          "type": "address"
        }
      ],
      "stateMutability": "view",
      "type": "function"
    },
    {
      "inputs": [
        {
          "internalType": "address",
          "name": "from",
          "type": "address"
        },
        {
          "internalType": "address",
          "name": "to",
          "type": "address"
        },
        {
          "internalType": "uint256",
          "name": "tokenId",
          "type": "uint256"
        }
      ],
      "name": "safeTransferFrom",
      "outputs": [],
      "stateMutability": "nonpayable",
      "type": "function"
    },
    {
      "inputs": [
        {
          "internalType": "address",
          "name": "from",
          "type": "address"
        },
        {
          "internalType": "address",
          "name": "to",
          "type": "address"
        },
        {
          "internalType": "uint256",
          "name": "tokenId",
          "type": "uint256"
        },
        {
          "internalType": "bytes",
          "name": "data",
          "type": "bytes"
        }
      ],
      "name": "safeTransferFrom",
      "outputs": [],
      "stateMutability": "nonpayable",
      "type": "function"
    },
    {
      "inputs": [
        {
          "internalType": "address",
          "name": "operator",
          "type": "address"
        },
        {
          "internalType": "bool",
          "name": "approved",
          "type": "bool"
        }
      ],
      "name": "setApprovalForAll",
      "outputs": [],
      "stateMutability": "nonpayable",
      "type": "function"
    },
    {
      "inputs": [
        {
          "internalType": "bytes4",
          "name": "interfaceId",
          "type": "bytes4"
        }
      ],
      "name": "supportsInterface",
      "outputs": [
        {
          "internalType": "bool",
          "name": "",
          "type": "bool"
        }
      ],
      "stateMutability": "view",
      "type": "function"
    },
    {
      "inputs": [],
      "name": "symbol",
      "outputs": [
        {
          "internalType": "string",
          "name": "",
          "type": "string"
        }
      ],
      "stateMutability": "view",
      "type": "function"
    },
    {
      "inputs": [
        {
          "internalType": "uint256",
          "name": "tokenId",
          "type": "uint256"
        }
      ],
      "name": "tokenURI",
      "outputs": [
        {
          "internalType": "string",
          "name": "",
          "type": "string"
        }
      ],
      "stateMutability": "view",
      "type": "function"
    },
    {
      "inputs": [
        {
          "internalType": "address",
          "name": "from",
          "type": "address"
        },
        {
          "internalType": "address",
          "name": "to",
          "type": "address"
        },
        {
          "internalType": "uint256",
          "name": "tokenId",
          "type": "uint256"
        }
      ],
      "name": "transferFrom",
      "outputs": [],
      "stateMutability": "nonpayable",
      "type": "function"
    }
  ],
  "bytecode": "0x60806040523480156200001157600080fd5b506040518060400160405280600581526020017f446f6769650000000000000000000000000000000000000000000000000000008152506040518060400160405280600381526020017f444f470000000000000000000000000000000000000000000000000000000000815250816000908051906020019062000096929190620000fb565b508060019080519060200190620000af929190620000fb565b505050620000ce67e68d31f874b5a5ad60c01b620000f860201b60201c565b620000ea67f591f6a739217e7860c01b620000f860201b60201c565b600060068190555062000210565b50565b8280546200010990620001da565b90600052602060002090601f0160209004810192826200012d576000855562000179565b82601f106200014857805160ff191683800117855562000179565b8280016001018555821562000179579182015b82811115620001785782518255916020019190600101906200015b565b5b5090506200018891906200018c565b5090565b5b80821115620001a75760008160009055506001016200018d565b5090565b7f4e487b7100000000000000000000000000000000000000000000000000000000600052602260045260246000fd5b60006002820490506001821680620001f357607f821691505b602082108114156200020a5762000209620001ab565b5b50919050565b6124fd80620002206000396000f3fe608060405234801561001057600080fd5b50600436106101005760003560e01c806370a0823111610097578063b88d4fde11610066578063b88d4fde146102ad578063c2229fea146102c9578063c87b56dd146102d3578063e985e9c51461030357610100565b806370a082311461022557806378ce90351461025557806395d89b4114610273578063a22cb4651461029157610100565b806323b872dd116100d357806323b872dd1461019f57806342842e0e146101bb5780636352211e146101d75780636e02007d1461020757610100565b806301ffc9a71461010557806306fdde0314610135578063081812fc14610153578063095ea7b314610183575b600080fd5b61011f600480360381019061011a91906116dc565b610333565b60405161012c9190611724565b60405180910390f35b61013d610415565b60405161014a91906117d8565b60405180910390f35b61016d60048036038101906101689190611830565b6104a7565b60405161017a919061189e565b60405180910390f35b61019d600480360381019061019891906118e5565b6104ed565b005b6101b960048036038101906101b49190611925565b610605565b005b6101d560048036038101906101d09190611925565b610665565b005b6101f160048036038101906101ec9190611830565b610685565b6040516101fe919061189e565b60405180910390f35b61020f610737565b60405161021c9190611987565b60405180910390f35b61023f600480360381019061023a91906119a2565b61077d565b60405161024c9190611987565b60405180910390f35b61025d610835565b60405161026a91906117d8565b60405180910390f35b61027b610851565b60405161028891906117d8565b60405180910390f35b6102ab60048036038101906102a691906119fb565b6108e3565b005b6102c760048036038101906102c29190611b70565b6108f9565b005b6102d161095b565b005b6102ed60048036038101906102e89190611830565b610a25565b6040516102fa91906117d8565b60405180910390f35b61031d60048036038101906103189190611bf3565b610b1b565b60405161032a9190611724565b60405180910390f35b60007f80ac58cd000000000000000000000000000000000000000000000000000000007bffffffffffffffffffffffffffffffffffffffffffffffffffffffff1916827bffffffffffffffffffffffffffffffffffffffffffffffffffffffff191614806103fe57507f5b5e139f000000000000000000000000000000000000000000000000000000007bffffffffffffffffffffffffffffffffffffffffffffffffffffffff1916827bffffffffffffffffffffffffffffffffffffffffffffffffffffffff1916145b8061040e575061040d82610baf565b5b9050919050565b60606000805461042490611c62565b80601f016020809104026020016040519081016040528092919081815260200182805461045090611c62565b801561049d5780601f106104725761010080835404028352916020019161049d565b820191906000526020600020905b81548152906001019060200180831161048057829003601f168201915b5050505050905090565b60006104b282610c19565b6004600083815260200190815260200160002060009054906101000a900473ffffffffffffffffffffffffffffffffffffffff169050919050565b60006104f882610685565b90508073ffffffffffffffffffffffffffffffffffffffff168373ffffffffffffffffffffffffffffffffffffffff161415610569576040517f08c379a000000000000000000000000000000000000000000000000000000000815260040161056090611d06565b60405180910390fd5b8073ffffffffffffffffffffffffffffffffffffffff16610588610c64565b73ffffffffffffffffffffffffffffffffffffffff1614806105b757506105b6816105b1610c64565b610b1b565b5b6105f6576040517f08c379a00000000000000000000000000000000000000000000000000000000081526004016105ed90611d98565b60405180910390fd5b6106008383610c6c565b505050565b610616610610610c64565b82610d25565b610655576040517f08c379a000000000000000000000000000000000000000000000000000000000815260040161064c90611e2a565b60405180910390fd5b610660838383610dba565b505050565b610680838383604051806020016040528060008152506108f9565b505050565b6000806002600084815260200190815260200160002060009054906101000a900473ffffffffffffffffffffffffffffffffffffffff169050600073ffffffffffffffffffffffffffffffffffffffff168173ffffffffffffffffffffffffffffffffffffffff16141561072e576040517f08c379a000000000000000000000000000000000000000000000000000000000815260040161072590611e96565b60405180910390fd5b80915050919050565b600061074d67366cd8e3e393f8f860c01b611021565b61076167cfdc17c176fabdc360c01b611021565b61077567df37e0eb5f10e2bb60c01b611021565b600654905090565b60008073ffffffffffffffffffffffffffffffffffffffff168273ffffffffffffffffffffffffffffffffffffffff1614156107ee576040517f08c379a00000000000000000000000000000000000000000000000000000000081526004016107e590611f28565b60405180910390fd5b600360008373ffffffffffffffffffffffffffffffffffffffff1673ffffffffffffffffffffffffffffffffffffffff168152602001908152602001600020549050919050565b6040518060800160405280605781526020016124716057913981565b60606001805461086090611c62565b80601f016020809104026020016040519081016040528092919081815260200182805461088c90611c62565b80156108d95780601f106108ae576101008083540402835291602001916108d9565b820191906000526020600020905b8154815290600101906020018083116108bc57829003601f168201915b5050505050905090565b6108f56108ee610c64565b8383611024565b5050565b61090a610904610c64565b83610d25565b610949576040517f08c379a000000000000000000000000000000000000000000000000000000000815260040161094090611e2a565b60405180910390fd5b61095584848484611191565b50505050565b61096f67eee02cc5f166103460c01b611021565b61098367cc43ba906239018460c01b611021565b61099767d1a47203deefe56660c01b611021565b6109a3336006546111ed565b6109b767a21bc5f9760d310860c01b611021565b6109cb673c757f1d48df083860c01b611021565b6006547fef1da42f89c42f48befa143007e6f5efd84a2d1cc3dc97c5edd2d3373220f66d60405160405180910390a2610a0e673a17eec6220dc1bc60c01b611021565b6001600654610a1d9190611f77565b600681905550565b6060610a3b6785f24fb0af7352fc60c01b611021565b610a4f6731561f4ec5005cf560c01b611021565b610a63670feaac234f428e2860c01b611021565b610a77672be9f00469b7590660c01b611021565b610a808261120b565b610abf576040517f08c379a0000000000000000000000000000000000000000000000000000000008152600401610ab69061203f565b60405180910390fd5b610ad36717f34d4f5785baf860c01b611021565b610ae767c4e4f10b4d32bf1660c01b611021565b610afb67a2a0e41b1ba2436060c01b611021565b604051806080016040528060578152602001612471605791399050919050565b6000600560008473ffffffffffffffffffffffffffffffffffffffff1673ffffffffffffffffffffffffffffffffffffffff16815260200190815260200160002060008373ffffffffffffffffffffffffffffffffffffffff1673ffffffffffffffffffffffffffffffffffffffff16815260200190815260200160002060009054906101000a900460ff16905092915050565b60007f01ffc9a7000000000000000000000000000000000000000000000000000000007bffffffffffffffffffffffffffffffffffffffffffffffffffffffff1916827bffffffffffffffffffffffffffffffffffffffffffffffffffffffff1916149050919050565b610c228161120b565b610c61576040517f08c379a0000000000000000000000000000000000000000000000000000000008152600401610c5890611e96565b60405180910390fd5b50565b600033905090565b816004600083815260200190815260200160002060006101000a81548173ffffffffffffffffffffffffffffffffffffffff021916908373ffffffffffffffffffffffffffffffffffffffff160217905550808273ffffffffffffffffffffffffffffffffffffffff16610cdf83610685565b73ffffffffffffffffffffffffffffffffffffffff167f8c5be1e5ebec7d5bd14f71427d1e84f3dd0314c0f7b2291e5b200ac8c7c3b92560405160405180910390a45050565b600080610d3183610685565b90508073ffffffffffffffffffffffffffffffffffffffff168473ffffffffffffffffffffffffffffffffffffffff161480610d735750610d728185610b1b565b5b80610db157508373ffffffffffffffffffffffffffffffffffffffff16610d99846104a7565b73ffffffffffffffffffffffffffffffffffffffff16145b91505092915050565b8273ffffffffffffffffffffffffffffffffffffffff16610dda82610685565b73ffffffffffffffffffffffffffffffffffffffff1614610e30576040517f08c379a0000000000000000000000000000000000000000000000000000000008152600401610e27906120d1565b60405180910390fd5b600073ffffffffffffffffffffffffffffffffffffffff168273ffffffffffffffffffffffffffffffffffffffff161415610ea0576040517f08c379a0000000000000000000000000000000000000000000000000000000008152600401610e9790612163565b60405180910390fd5b610eab838383611277565b610eb6600082610c6c565b6001600360008573ffffffffffffffffffffffffffffffffffffffff1673ffffffffffffffffffffffffffffffffffffffff1681526020019081526020016000206000828254610f069190612183565b925050819055506001600360008473ffffffffffffffffffffffffffffffffffffffff1673ffffffffffffffffffffffffffffffffffffffff1681526020019081526020016000206000828254610f5d9190611f77565b92505081905550816002600083815260200190815260200160002060006101000a81548173ffffffffffffffffffffffffffffffffffffffff021916908373ffffffffffffffffffffffffffffffffffffffff160217905550808273ffffffffffffffffffffffffffffffffffffffff168473ffffffffffffffffffffffffffffffffffffffff167fddf252ad1be2c89b69c2b068fc378daa952ba7f163c4a11628f55a4df523b3ef60405160405180910390a461101c83838361127c565b505050565b50565b8173ffffffffffffffffffffffffffffffffffffffff168373ffffffffffffffffffffffffffffffffffffffff161415611093576040517f08c379a000000000000000000000000000000000000000000000000000000000815260040161108a90612203565b60405180910390fd5b80600560008573ffffffffffffffffffffffffffffffffffffffff1673ffffffffffffffffffffffffffffffffffffffff16815260200190815260200160002060008473ffffffffffffffffffffffffffffffffffffffff1673ffffffffffffffffffffffffffffffffffffffff16815260200190815260200160002060006101000a81548160ff0219169083151502179055508173ffffffffffffffffffffffffffffffffffffffff168373ffffffffffffffffffffffffffffffffffffffff167f17307eab39ab6107e8899845ad3d59bd9653f200f220920489ca2b5937696c31836040516111849190611724565b60405180910390a3505050565b61119c848484610dba565b6111a884848484611281565b6111e7576040517f08c379a00000000000000000000000000000000000000000000000000000000081526004016111de90612295565b60405180910390fd5b50505050565b611207828260405180602001604052806000815250611418565b5050565b60008073ffffffffffffffffffffffffffffffffffffffff166002600084815260200190815260200160002060009054906101000a900473ffffffffffffffffffffffffffffffffffffffff1673ffffffffffffffffffffffffffffffffffffffff1614159050919050565b505050565b505050565b60006112a28473ffffffffffffffffffffffffffffffffffffffff16611473565b1561140b578373ffffffffffffffffffffffffffffffffffffffff1663150b7a026112cb610c64565b8786866040518563ffffffff1660e01b81526004016112ed949392919061230a565b602060405180830381600087803b15801561130757600080fd5b505af192505050801561133857506040513d601f19601f82011682018060405250810190611335919061236b565b60015b6113bb573d8060008114611368576040519150601f19603f3d011682016040523d82523d6000602084013e61136d565b606091505b506000815114156113b3576040517f08c379a00000000000000000000000000000000000000000000000000000000081526004016113aa90612295565b60405180910390fd5b805181602001fd5b63150b7a0260e01b7bffffffffffffffffffffffffffffffffffffffffffffffffffffffff1916817bffffffffffffffffffffffffffffffffffffffffffffffffffffffff191614915050611410565b600190505b949350505050565b6114228383611496565b61142f6000848484611281565b61146e576040517f08c379a000000000000000000000000000000000000000000000000000000000815260040161146590612295565b60405180910390fd5b505050565b6000808273ffffffffffffffffffffffffffffffffffffffff163b119050919050565b600073ffffffffffffffffffffffffffffffffffffffff168273ffffffffffffffffffffffffffffffffffffffff161415611506576040517f08c379a00000000000000000000000000000000000000000000000000000000081526004016114fd906123e4565b60405180910390fd5b61150f8161120b565b1561154f576040517f08c379a000000000000000000000000000000000000000000000000000000000815260040161154690612450565b60405180910390fd5b61155b60008383611277565b6001600360008473ffffffffffffffffffffffffffffffffffffffff1673ffffffffffffffffffffffffffffffffffffffff16815260200190815260200160002060008282546115ab9190611f77565b92505081905550816002600083815260200190815260200160002060006101000a81548173ffffffffffffffffffffffffffffffffffffffff021916908373ffffffffffffffffffffffffffffffffffffffff160217905550808273ffffffffffffffffffffffffffffffffffffffff16600073ffffffffffffffffffffffffffffffffffffffff167fddf252ad1be2c89b69c2b068fc378daa952ba7f163c4a11628f55a4df523b3ef60405160405180910390a461166c6000838361127c565b5050565b6000604051905090565b600080fd5b600080fd5b60007fffffffff0000000000000000000000000000000000000000000000000000000082169050919050565b6116b981611684565b81146116c457600080fd5b50565b6000813590506116d6816116b0565b92915050565b6000602082840312156116f2576116f161167a565b5b6000611700848285016116c7565b91505092915050565b60008115159050919050565b61171e81611709565b82525050565b60006020820190506117396000830184611715565b92915050565b600081519050919050565b600082825260208201905092915050565b60005b8381101561177957808201518184015260208101905061175e565b83811115611788576000848401525b50505050565b6000601f19601f8301169050919050565b60006117aa8261173f565b6117b4818561174a565b93506117c481856020860161175b565b6117cd8161178e565b840191505092915050565b600060208201905081810360008301526117f2818461179f565b905092915050565b6000819050919050565b61180d816117fa565b811461181857600080fd5b50565b60008135905061182a81611804565b92915050565b6000602082840312156118465761184561167a565b5b60006118548482850161181b565b91505092915050565b600073ffffffffffffffffffffffffffffffffffffffff82169050919050565b60006118888261185d565b9050919050565b6118988161187d565b82525050565b60006020820190506118b3600083018461188f565b92915050565b6118c28161187d565b81146118cd57600080fd5b50565b6000813590506118df816118b9565b92915050565b600080604083850312156118fc576118fb61167a565b5b600061190a858286016118d0565b925050602061191b8582860161181b565b9150509250929050565b60008060006060848603121561193e5761193d61167a565b5b600061194c868287016118d0565b935050602061195d868287016118d0565b925050604061196e8682870161181b565b9150509250925092565b611981816117fa565b82525050565b600060208201905061199c6000830184611978565b92915050565b6000602082840312156119b8576119b761167a565b5b60006119c6848285016118d0565b91505092915050565b6119d881611709565b81146119e357600080fd5b50565b6000813590506119f5816119cf565b92915050565b60008060408385031215611a1257611a1161167a565b5b6000611a20858286016118d0565b9250506020611a31858286016119e6565b9150509250929050565b600080fd5b600080fd5b7f4e487b7100000000000000000000000000000000000000000000000000000000600052604160045260246000fd5b611a7d8261178e565b810181811067ffffffffffffffff82111715611a9c57611a9b611a45565b5b80604052505050565b6000611aaf611670565b9050611abb8282611a74565b919050565b600067ffffffffffffffff821115611adb57611ada611a45565b5b611ae48261178e565b9050602081019050919050565b82818337600083830152505050565b6000611b13611b0e84611ac0565b611aa5565b905082815260208101848484011115611b2f57611b2e611a40565b5b611b3a848285611af1565b509392505050565b600082601f830112611b5757611b56611a3b565b5b8135611b67848260208601611b00565b91505092915050565b60008060008060808587031215611b8a57611b8961167a565b5b6000611b98878288016118d0565b9450506020611ba9878288016118d0565b9350506040611bba8782880161181b565b925050606085013567ffffffffffffffff811115611bdb57611bda61167f565b5b611be787828801611b42565b91505092959194509250565b60008060408385031215611c0a57611c0961167a565b5b6000611c18858286016118d0565b9250506020611c29858286016118d0565b9150509250929050565b7f4e487b7100000000000000000000000000000000000000000000000000000000600052602260045260246000fd5b60006002820490506001821680611c7a57607f821691505b60208210811415611c8e57611c8d611c33565b5b50919050565b7f4552433732313a20617070726f76616c20746f2063757272656e74206f776e6560008201527f7200000000000000000000000000000000000000000000000000000000000000602082015250565b6000611cf060218361174a565b9150611cfb82611c94565b604082019050919050565b60006020820190508181036000830152611d1f81611ce3565b9050919050565b7f4552433732313a20617070726f76652063616c6c6572206973206e6f7420746f60008201527f6b656e206f776e6572206e6f7220617070726f76656420666f7220616c6c0000602082015250565b6000611d82603e8361174a565b9150611d8d82611d26565b604082019050919050565b60006020820190508181036000830152611db181611d75565b9050919050565b7f4552433732313a2063616c6c6572206973206e6f7420746f6b656e206f776e6560008201527f72206e6f7220617070726f766564000000000000000000000000000000000000602082015250565b6000611e14602e8361174a565b9150611e1f82611db8565b604082019050919050565b60006020820190508181036000830152611e4381611e07565b9050919050565b7f4552433732313a20696e76616c696420746f6b656e2049440000000000000000600082015250565b6000611e8060188361174a565b9150611e8b82611e4a565b602082019050919050565b60006020820190508181036000830152611eaf81611e73565b9050919050565b7f4552433732313a2061646472657373207a65726f206973206e6f74206120766160008201527f6c6964206f776e65720000000000000000000000000000000000000000000000602082015250565b6000611f1260298361174a565b9150611f1d82611eb6565b604082019050919050565b60006020820190508181036000830152611f4181611f05565b9050919050565b7f4e487b7100000000000000000000000000000000000000000000000000000000600052601160045260246000fd5b6000611f82826117fa565b9150611f8d836117fa565b9250827fffffffffffffffffffffffffffffffffffffffffffffffffffffffffffffffff03821115611fc257611fc1611f48565b5b828201905092915050565b7f4552433732314d657461646174613a2055524920717565727920666f72206e6f60008201527f6e6578697374656e7420746f6b656e0000000000000000000000000000000000602082015250565b6000612029602f8361174a565b915061203482611fcd565b604082019050919050565b600060208201905081810360008301526120588161201c565b9050919050565b7f4552433732313a207472616e736665722066726f6d20696e636f72726563742060008201527f6f776e6572000000000000000000000000000000000000000000000000000000602082015250565b60006120bb60258361174a565b91506120c68261205f565b604082019050919050565b600060208201905081810360008301526120ea816120ae565b9050919050565b7f4552433732313a207472616e7366657220746f20746865207a65726f2061646460008201527f7265737300000000000000000000000000000000000000000000000000000000602082015250565b600061214d60248361174a565b9150612158826120f1565b604082019050919050565b6000602082019050818103600083015261217c81612140565b9050919050565b600061218e826117fa565b9150612199836117fa565b9250828210156121ac576121ab611f48565b5b828203905092915050565b7f4552433732313a20617070726f766520746f2063616c6c657200000000000000600082015250565b60006121ed60198361174a565b91506121f8826121b7565b602082019050919050565b6000602082019050818103600083015261221c816121e0565b9050919050565b7f4552433732313a207472616e7366657220746f206e6f6e20455243373231526560008201527f63656976657220696d706c656d656e7465720000000000000000000000000000602082015250565b600061227f60328361174a565b915061228a82612223565b604082019050919050565b600060208201905081810360008301526122ae81612272565b9050919050565b600081519050919050565b600082825260208201905092915050565b60006122dc826122b5565b6122e681856122c0565b93506122f681856020860161175b565b6122ff8161178e565b840191505092915050565b600060808201905061231f600083018761188f565b61232c602083018661188f565b6123396040830185611978565b818103606083015261234b81846122d1565b905095945050505050565b600081519050612365816116b0565b92915050565b6000602082840312156123815761238061167a565b5b600061238f84828501612356565b91505092915050565b7f4552433732313a206d696e7420746f20746865207a65726f2061646472657373600082015250565b60006123ce60208361174a565b91506123d982612398565b602082019050919050565b600060208201905081810360008301526123fd816123c1565b9050919050565b7f4552433732313a20746f6b656e20616c7265616479206d696e74656400000000600082015250565b600061243a601c8361174a565b915061244582612404565b602082019050919050565b600060208201905081810360008301526124698161242d565b905091905056fe697066733a2f2f62616679626569673337696f6972373673376d67356f6f6265746e636f6a636d3363336878617379643472766964346a71687934676b61686567342f3f66696c656e616d653d302d5055472e6a736f6ea26469706673582212201b8a968099112bf5323ad84f6878cef25beec1c201a2c6e7b1d8f44d0762cf1664736f6c63430008080033",
  "linkReferences": {},
  "deployedLinkReferences": {}
}