{
  "_format": "hh-sol-artifact-1",
  "contractName": "NftMarketplace",
  "sourceName": "contracts/NftMarketplace.sol",
  "abi": [
    {
      "inputs": [
        {
          "internalType": "address",
          "name": "nftAddress",
          "type": "address"
        },
        {
          "internalType": "uint256",
          "name": "tokenId",
          "type": "uint256"
        }
      ],
      "name": "NftMarketplace__AlreadyListed",
      "type": "error"
    },
    {
      "inputs": [],
      "name": "NftMarketplace__NoProceeds",
      "type": "error"
    },
    {
      "inputs": [],
      "name": "NftMarketplace__NotApprovedForMarketplace",
      "type": "error"
    },
    {
      "inputs": [
        {
          "internalType": "address",
          "name": "nftAddress",
          "type": "address"
        },
        {
          "internalType": "uint256",
          "name": "tokenId",
          "type": "uint256"
        }
      ],
      "name": "NftMarketplace__NotListed",
      "type": "error"
    },
    {
      "inputs": [],
      "name": "NftMarketplace__NotOwner",
      "type": "error"
    },
    {
      "inputs": [],
      "name": "NftMarketplace__PriceMustBeAboveZero",
      "type": "error"
    },
    {
      "inputs": [
        {
          "internalType": "address",
          "name": "nftAddress",
          "type": "address"
        },
        {
          "internalType": "uint256",
          "name": "tokenId",
          "type": "uint256"
        },
        {
          "internalType": "uint256",
          "name": "price",
          "type": "uint256"
        }
      ],
      "name": "NftMarketplace__PriceNotMet",
      "type": "error"
    },
    {
      "inputs": [],
      "name": "NftMarketplace__TransferedFailed",
      "type": "error"
    },
    {
      "anonymous": false,
      "inputs": [
        {
          "indexed": true,
          "internalType": "address",
          "name": "buyer",
          "type": "address"
        },
        {
          "indexed": true,
          "internalType": "address",
          "name": "nftAddress",
          "type": "address"
        },
        {
          "indexed": true,
          "internalType": "uint256",
          "name": "tokenId",
          "type": "uint256"
        },
        {
          "indexed": false,
          "internalType": "uint256",
          "name": "price",
          "type": "uint256"
        }
      ],
      "name": "ItemBought",
      "type": "event"
    },
    {
      "anonymous": false,
      "inputs": [
        {
          "indexed": true,
          "internalType": "address",
          "name": "seller",
          "type": "address"
        },
        {
          "indexed": true,
          "internalType": "address",
          "name": "nftAddress",
          "type": "address"
        },
        {
          "indexed": false,
          "internalType": "uint256",
          "name": "tokenId",
          "type": "uint256"
        }
      ],
      "name": "NftMarketplace__ItemCancelled",
      "type": "event"
    },
    {
      "anonymous": false,
      "inputs": [
        {
          "indexed": true,
          "internalType": "address",
          "name": "seller",
          "type": "address"
        },
        {
          "indexed": true,
          "internalType": "address",
          "name": "nftAddress",
          "type": "address"
        },
        {
          "indexed": true,
          "internalType": "uint256",
          "name": "tokenId",
          "type": "uint256"
        },
        {
          "indexed": false,
          "internalType": "uint256",
          "name": "price",
          "type": "uint256"
        }
      ],
      "name": "NftMarketplace__ItemListed",
      "type": "event"
    },
    {
      "inputs": [
        {
          "internalType": "address",
          "name": "nftAddress",
          "type": "address"
        },
        {
          "internalType": "uint256",
          "name": "tokenId",
          "type": "uint256"
        }
      ],
      "name": "buyItem",
      "outputs": [],
      "stateMutability": "payable",
      "type": "function"
    },
    {
      "inputs": [
        {
          "internalType": "address",
          "name": "nftAddress",
          "type": "address"
        },
        {
          "internalType": "uint256",
          "name": "tokenId",
          "type": "uint256"
        }
      ],
      "name": "cancelListing",
      "outputs": [],
      "stateMutability": "nonpayable",
      "type": "function"
    },
    {
      "inputs": [
        {
          "internalType": "address",
          "name": "nftAddress",
          "type": "address"
        },
        {
          "internalType": "uint256",
          "name": "tokenId",
          "type": "uint256"
        }
      ],
      "name": "getListing",
      "outputs": [
        {
          "components": [
            {
              "internalType": "uint256",
              "name": "price",
              "type": "uint256"
            },
            {
              "internalType": "address",
              "name": "seller",
              "type": "address"
            }
          ],
          "internalType": "struct NftMarketplace.Listing",
          "name": "",
          "type": "tuple"
        }
      ],
      "stateMutability": "view",
      "type": "function"
    },
    {
      "inputs": [
        {
          "internalType": "address",
          "name": "seller",
          "type": "address"
        }
      ],
      "name": "getProceeds",
      "outputs": [
        {
          "internalType": "uint256",
          "name": "",
          "type": "uint256"
        }
      ],
      "stateMutability": "view",
      "type": "function"
    },
    {
      "inputs": [
        {
          "internalType": "address",
          "name": "nftAddress",
          "type": "address"
        },
        {
          "internalType": "uint256",
          "name": "tokenId",
          "type": "uint256"
        },
        {
          "internalType": "uint256",
          "name": "price",
          "type": "uint256"
        }
      ],
      "name": "listItem",
      "outputs": [],
      "stateMutability": "nonpayable",
      "type": "function"
    },
    {
      "inputs": [
        {
          "internalType": "address",
          "name": "nftAddress",
          "type": "address"
        },
        {
          "internalType": "uint256",
          "name": "tokenId",
          "type": "uint256"
        },
        {
          "internalType": "uint256",
          "name": "newPrice",
          "type": "uint256"
        }
      ],
      "name": "updateListing",
      "outputs": [],
      "stateMutability": "nonpayable",
      "type": "function"
    },
    {
      "inputs": [],
      "name": "withdrawProceeds",
      "outputs": [],
      "stateMutability": "nonpayable",
      "type": "function"
    }
  ],
  "bytecode": "0x608060405234801561001057600080fd5b50600160008190555061184e806100286000396000f3fe6080604052600436106100705760003560e01c80639038e6931161004e5780639038e693146101185780639f37092a1461012f578063b2ddee061461014b578063f772adf11461017457610070565b806330cfeda91461007557806388700d1c146100b257806389bfd38f146100ef575b600080fd5b34801561008157600080fd5b5061009c60048036038101906100979190611460565b61019d565b6040516100a991906114a6565b60405180910390f35b3480156100be57600080fd5b506100d960048036038101906100d491906114ed565b6101e6565b6040516100e6919061157a565b60405180910390f35b3480156100fb57600080fd5b5061011660048036038101906101119190611595565b6102b1565b005b34801561012457600080fd5b5061012d61065a565b005b610149600480360381019061014491906114ed565b61081a565b005b34801561015757600080fd5b50610172600480360381019061016d91906114ed565b610e03565b005b34801561018057600080fd5b5061019b60048036038101906101969190611595565b6110fc565b005b6000600260008373ffffffffffffffffffffffffffffffffffffffff1673ffffffffffffffffffffffffffffffffffffffff168152602001908152602001600020549050919050565b6101ee6113cd565b600160008473ffffffffffffffffffffffffffffffffffffffff1673ffffffffffffffffffffffffffffffffffffffff1681526020019081526020016000206000838152602001908152602001600020604051806040016040529081600082015481526020016001820160009054906101000a900473ffffffffffffffffffffffffffffffffffffffff1673ffffffffffffffffffffffffffffffffffffffff1673ffffffffffffffffffffffffffffffffffffffff1681525050905092915050565b8282336000600160008573ffffffffffffffffffffffffffffffffffffffff1673ffffffffffffffffffffffffffffffffffffffff1681526020019081526020016000206000848152602001908152602001600020604051806040016040529081600082015481526020016001820160009054906101000a900473ffffffffffffffffffffffffffffffffffffffff1673ffffffffffffffffffffffffffffffffffffffff1673ffffffffffffffffffffffffffffffffffffffff168152505090506000816000015111156103bf5783836040517fc2f0d7090000000000000000000000000000000000000000000000000000000081526004016103b69291906115f7565b60405180910390fd5b868633600083905060008173ffffffffffffffffffffffffffffffffffffffff16636352211e856040518263ffffffff1660e01b815260040161040291906114a6565b60206040518083038186803b15801561041a57600080fd5b505afa15801561042e573d6000803e3d6000fd5b505050506040513d601f19601f820116820180604052508101906104529190611635565b90508073ffffffffffffffffffffffffffffffffffffffff168373ffffffffffffffffffffffffffffffffffffffff16146104b9576040517f94953b6000000000000000000000000000000000000000000000000000000000815260040160405180910390fd5b60008a116104f3576040517f096d7ecf00000000000000000000000000000000000000000000000000000000815260040160405180910390fd5b60008c90503073ffffffffffffffffffffffffffffffffffffffff168173ffffffffffffffffffffffffffffffffffffffff1663081812fc8e6040518263ffffffff1660e01b815260040161054891906114a6565b60206040518083038186803b15801561056057600080fd5b505afa158015610574573d6000803e3d6000fd5b505050506040513d601f19601f820116820180604052508101906105989190611635565b73ffffffffffffffffffffffffffffffffffffffff16146105e5576040517f13e7d28d00000000000000000000000000000000000000000000000000000000815260040160405180910390fd5b8b8d73ffffffffffffffffffffffffffffffffffffffff163373ffffffffffffffffffffffffffffffffffffffff167fd8c9d4c3e24291376076c3d2c9f426d5cfac54e1e229830c764f941426c070fa8e60405161064391906114a6565b60405180910390a450505050505050505050505050565b600260005414156106a0576040517f08c379a0000000000000000000000000000000000000000000000000000000008152600401610697906116bf565b60405180910390fd5b60026000819055506000600260003373ffffffffffffffffffffffffffffffffffffffff1673ffffffffffffffffffffffffffffffffffffffff16815260200190815260200160002054905060008111610726576040517f668a7c4200000000000000000000000000000000000000000000000000000000815260040160405180910390fd5b6000600260003373ffffffffffffffffffffffffffffffffffffffff1673ffffffffffffffffffffffffffffffffffffffff1681526020019081526020016000208190555060003373ffffffffffffffffffffffffffffffffffffffff168260405161079190611710565b60006040518083038185875af1925050503d80600081146107ce576040519150601f19603f3d011682016040523d82523d6000602084013e6107d3565b606091505b505090508061080e576040517f03f43fc800000000000000000000000000000000000000000000000000000000815260040160405180910390fd5b50506001600081905550565b60026000541415610860576040517f08c379a0000000000000000000000000000000000000000000000000000000008152600401610857906116bf565b60405180910390fd5b600260008190555081816000600160008473ffffffffffffffffffffffffffffffffffffffff1673ffffffffffffffffffffffffffffffffffffffff1681526020019081526020016000206000838152602001908152602001600020604051806040016040529081600082015481526020016001820160009054906101000a900473ffffffffffffffffffffffffffffffffffffffff1673ffffffffffffffffffffffffffffffffffffffff1673ffffffffffffffffffffffffffffffffffffffff1681525050905060008160000151116109745782826040517f6d350f2200000000000000000000000000000000000000000000000000000000815260040161096b9291906115f7565b60405180910390fd5b600160008673ffffffffffffffffffffffffffffffffffffffff1673ffffffffffffffffffffffffffffffffffffffff168152602001908152602001600020600085815260200190815260200160002060000154341015610a63578484600160008873ffffffffffffffffffffffffffffffffffffffff1673ffffffffffffffffffffffffffffffffffffffff1681526020019081526020016000206000878152602001908152602001600020600001546040517f817ce9f1000000000000000000000000000000000000000000000000000000008152600401610a5a93929190611725565b60405180910390fd5b3460026000600160008973ffffffffffffffffffffffffffffffffffffffff1673ffffffffffffffffffffffffffffffffffffffff168152602001908152602001600020600088815260200190815260200160002060010160009054906101000a900473ffffffffffffffffffffffffffffffffffffffff1673ffffffffffffffffffffffffffffffffffffffff1673ffffffffffffffffffffffffffffffffffffffff16815260200190815260200160002054610b21919061178b565b60026000600160008973ffffffffffffffffffffffffffffffffffffffff1673ffffffffffffffffffffffffffffffffffffffff168152602001908152602001600020600088815260200190815260200160002060010160009054906101000a900473ffffffffffffffffffffffffffffffffffffffff1673ffffffffffffffffffffffffffffffffffffffff1673ffffffffffffffffffffffffffffffffffffffff16815260200190815260200160002081905550600160008673ffffffffffffffffffffffffffffffffffffffff1673ffffffffffffffffffffffffffffffffffffffff16815260200190815260200160002060008581526020019081526020016000206000808201600090556001820160006101000a81549073ffffffffffffffffffffffffffffffffffffffff021916905550508473ffffffffffffffffffffffffffffffffffffffff166342842e0e600160008873ffffffffffffffffffffffffffffffffffffffff1673ffffffffffffffffffffffffffffffffffffffff168152602001908152602001600020600087815260200190815260200160002060010160009054906101000a900473ffffffffffffffffffffffffffffffffffffffff1633876040518463ffffffff1660e01b8152600401610d09939291906117e1565b600060405180830381600087803b158015610d2357600080fd5b505af1158015610d37573d6000803e3d6000fd5b50505050838573ffffffffffffffffffffffffffffffffffffffff163373ffffffffffffffffffffffffffffffffffffffff167f263223b1dd81e51054a4e6f791d45a4a1ddb4aadcd93a2dfd892615c3fdac187600160008a73ffffffffffffffffffffffffffffffffffffffff1673ffffffffffffffffffffffffffffffffffffffff168152602001908152602001600020600089815260200190815260200160002060000154604051610dec91906114a6565b60405180910390a450505060016000819055505050565b818133600083905060008173ffffffffffffffffffffffffffffffffffffffff16636352211e856040518263ffffffff1660e01b8152600401610e4691906114a6565b60206040518083038186803b158015610e5e57600080fd5b505afa158015610e72573d6000803e3d6000fd5b505050506040513d601f19601f82011682018060405250810190610e969190611635565b90508073ffffffffffffffffffffffffffffffffffffffff168373ffffffffffffffffffffffffffffffffffffffff1614610efd576040517f94953b6000000000000000000000000000000000000000000000000000000000815260040160405180910390fd5b86866000600160008473ffffffffffffffffffffffffffffffffffffffff1673ffffffffffffffffffffffffffffffffffffffff1681526020019081526020016000206000838152602001908152602001600020604051806040016040529081600082015481526020016001820160009054906101000a900473ffffffffffffffffffffffffffffffffffffffff1673ffffffffffffffffffffffffffffffffffffffff1673ffffffffffffffffffffffffffffffffffffffff1681525050905060008160000151116110095782826040517f6d350f220000000000000000000000000000000000000000000000000000000081526004016110009291906115f7565b60405180910390fd5b600160008b73ffffffffffffffffffffffffffffffffffffffff1673ffffffffffffffffffffffffffffffffffffffff16815260200190815260200160002060008a81526020019081526020016000206000808201600090556001820160006101000a81549073ffffffffffffffffffffffffffffffffffffffff021916905550508973ffffffffffffffffffffffffffffffffffffffff163373ffffffffffffffffffffffffffffffffffffffff167f510d5293f19c115316140ac4077bf6b81369643e37d07bcedf1e8e223217b81c8b6040516110e891906114a6565b60405180910390a350505050505050505050565b828233600083905060008173ffffffffffffffffffffffffffffffffffffffff16636352211e856040518263ffffffff1660e01b815260040161113f91906114a6565b60206040518083038186803b15801561115757600080fd5b505afa15801561116b573d6000803e3d6000fd5b505050506040513d601f19601f8201168201806040525081019061118f9190611635565b90508073ffffffffffffffffffffffffffffffffffffffff168373ffffffffffffffffffffffffffffffffffffffff16146111f6576040517f94953b6000000000000000000000000000000000000000000000000000000000815260040160405180910390fd5b87876000600160008473ffffffffffffffffffffffffffffffffffffffff1673ffffffffffffffffffffffffffffffffffffffff1681526020019081526020016000206000838152602001908152602001600020604051806040016040529081600082015481526020016001820160009054906101000a900473ffffffffffffffffffffffffffffffffffffffff1673ffffffffffffffffffffffffffffffffffffffff1673ffffffffffffffffffffffffffffffffffffffff1681525050905060008160000151116113025782826040517f6d350f220000000000000000000000000000000000000000000000000000000081526004016112f99291906115f7565b60405180910390fd5b88600160008d73ffffffffffffffffffffffffffffffffffffffff1673ffffffffffffffffffffffffffffffffffffffff16815260200190815260200160002060008c815260200190815260200160002060000181905550898b73ffffffffffffffffffffffffffffffffffffffff163373ffffffffffffffffffffffffffffffffffffffff167fd8c9d4c3e24291376076c3d2c9f426d5cfac54e1e229830c764f941426c070fa8c6040516113b891906114a6565b60405180910390a45050505050505050505050565b604051806040016040528060008152602001600073ffffffffffffffffffffffffffffffffffffffff1681525090565b600080fd5b600073ffffffffffffffffffffffffffffffffffffffff82169050919050565b600061142d82611402565b9050919050565b61143d81611422565b811461144857600080fd5b50565b60008135905061145a81611434565b92915050565b600060208284031215611476576114756113fd565b5b60006114848482850161144b565b91505092915050565b6000819050919050565b6114a08161148d565b82525050565b60006020820190506114bb6000830184611497565b92915050565b6114ca8161148d565b81146114d557600080fd5b50565b6000813590506114e7816114c1565b92915050565b60008060408385031215611504576115036113fd565b5b60006115128582860161144b565b9250506020611523858286016114d8565b9150509250929050565b6115368161148d565b82525050565b61154581611422565b82525050565b604082016000820151611561600085018261152d565b506020820151611574602085018261153c565b50505050565b600060408201905061158f600083018461154b565b92915050565b6000806000606084860312156115ae576115ad6113fd565b5b60006115bc8682870161144b565b93505060206115cd868287016114d8565b92505060406115de868287016114d8565b9150509250925092565b6115f181611422565b82525050565b600060408201905061160c60008301856115e8565b6116196020830184611497565b9392505050565b60008151905061162f81611434565b92915050565b60006020828403121561164b5761164a6113fd565b5b600061165984828501611620565b91505092915050565b600082825260208201905092915050565b7f5265656e7472616e637947756172643a207265656e7472616e742063616c6c00600082015250565b60006116a9601f83611662565b91506116b482611673565b602082019050919050565b600060208201905081810360008301526116d88161169c565b9050919050565b600081905092915050565b50565b60006116fa6000836116df565b9150611705826116ea565b600082019050919050565b600061171b826116ed565b9150819050919050565b600060608201905061173a60008301866115e8565b6117476020830185611497565b6117546040830184611497565b949350505050565b7f4e487b7100000000000000000000000000000000000000000000000000000000600052601160045260246000fd5b60006117968261148d565b91506117a18361148d565b9250827fffffffffffffffffffffffffffffffffffffffffffffffffffffffffffffffff038211156117d6576117d561175c565b5b828201905092915050565b60006060820190506117f660008301866115e8565b61180360208301856115e8565b6118106040830184611497565b94935050505056fea2646970667358221220b22346283447418e9883467dbf61b6fd3bb33e88fa57522d6de239120673681664736f6c63430008080033",
  "linkReferences": {},
  "deployedLinkReferences": {}
}